{
  "abi": [
    {
      "inputs": [
        {
          "internalType": "uint256",
          "name": "minimum",
          "type": "uint256"
        },
        {
          "internalType": "address",
          "name": "managerAddress",
          "type": "address"
        }
      ],
      "stateMutability": "nonpayable",
      "type": "constructor"
    },
    {
      "inputs": [
        {
          "internalType": "uint256",
          "name": "requestId",
          "type": "uint256"
        }
      ],
      "name": "approveRequest",
      "outputs": [],
      "stateMutability": "nonpayable",
      "type": "function"
    },
    {
      "inputs": [
        {
          "internalType": "address",
          "name": "",
          "type": "address"
        }
      ],
      "name": "approvers",
      "outputs": [
        {
          "internalType": "bool",
          "name": "",
          "type": "bool"
        }
      ],
      "stateMutability": "view",
      "type": "function"
    },
    {
      "inputs": [],
      "name": "contribute",
      "outputs": [],
      "stateMutability": "payable",
      "type": "function"
    },
    {
      "inputs": [
        {
          "internalType": "string",
          "name": "description",
          "type": "string"
        },
        {
          "internalType": "uint256",
          "name": "value",
          "type": "uint256"
        },
        {
          "internalType": "address payable",
          "name": "recipient",
          "type": "address"
        }
      ],
      "name": "createRequest",
      "outputs": [],
      "stateMutability": "nonpayable",
      "type": "function"
    },
    {
      "inputs": [
        {
          "internalType": "uint256",
          "name": "requestId",
          "type": "uint256"
        }
      ],
      "name": "finalizeRequest",
      "outputs": [],
      "stateMutability": "nonpayable",
      "type": "function"
    },
    {
      "inputs": [],
      "name": "manager",
      "outputs": [
        {
          "internalType": "address",
          "name": "",
          "type": "address"
        }
      ],
      "stateMutability": "view",
      "type": "function"
    },
    {
      "inputs": [],
      "name": "minimumContribution",
      "outputs": [
        {
          "internalType": "uint256",
          "name": "",
          "type": "uint256"
        }
      ],
      "stateMutability": "view",
      "type": "function"
    },
    {
      "inputs": [
        {
          "internalType": "uint256",
          "name": "",
          "type": "uint256"
        }
      ],
      "name": "requests",
      "outputs": [
        {
          "internalType": "string",
          "name": "description",
          "type": "string"
        },
        {
          "internalType": "uint256",
          "name": "value",
          "type": "uint256"
        },
        {
          "internalType": "address payable",
          "name": "recipient",
          "type": "address"
        },
        {
          "internalType": "bool",
          "name": "complete",
          "type": "bool"
        },
        {
          "internalType": "uint256",
          "name": "countApproved",
          "type": "uint256"
        }
      ],
      "stateMutability": "view",
      "type": "function"
    }
  ],
  "devdoc": {
    "kind": "dev",
    "methods": {},
    "version": 1
  },
  "evm": {
    "assembly": "    /* \"Campaign.sol\":57:2541  contract Campaign {... */\n  mstore(0x40, 0x80)\n    /* \"Campaign.sol\":750:906  constructor(uint minimum, address managerAddress) {... */\n  callvalue\n  dup1\n  iszero\n  tag_1\n  jumpi\n  revert(0x00, 0x00)\ntag_1:\n  pop\n  mload(0x40)\n  sub(codesize, bytecodeSize)\n  dup1\n  bytecodeSize\n  dup4\n  codecopy\n  dup2\n  dup2\n  add\n  0x40\n  mstore\n  dup2\n  add\n  swap1\n  tag_2\n  swap2\n  swap1\n  tag_3\n  jump\t// in\ntag_2:\n    /* \"Campaign.sol\":820:834  managerAddress */\n  dup1\n    /* \"Campaign.sol\":810:817  manager */\n  0x03\n  0x00\n    /* \"Campaign.sol\":810:834  manager = managerAddress */\n  0x0100\n  exp\n  dup2\n  sload\n  dup2\n  0xffffffffffffffffffffffffffffffffffffffff\n  mul\n  not\n  and\n  swap1\n  dup4\n  0xffffffffffffffffffffffffffffffffffffffff\n  and\n  mul\n  or\n  swap1\n  sstore\n  pop\n    /* \"Campaign.sol\":866:873  minimum */\n  dup2\n    /* \"Campaign.sol\":844:863  minimumContribution */\n  0x04\n    /* \"Campaign.sol\":844:873  minimumContribution = minimum */\n  dup2\n  swap1\n  sstore\n  pop\n    /* \"Campaign.sol\":898:899  1 */\n  0x01\n    /* \"Campaign.sol\":883:895  requestCount */\n  0x00\n    /* \"Campaign.sol\":883:899  requestCount = 1 */\n  dup2\n  swap1\n  sstore\n  pop\n    /* \"Campaign.sol\":750:906  constructor(uint minimum, address managerAddress) {... */\n  pop\n  pop\n    /* \"Campaign.sol\":57:2541  contract Campaign {... */\n  jump(tag_6)\n    /* \"#utility.yul\":88:205   */\ntag_8:\n    /* \"#utility.yul\":197:198   */\n  0x00\n    /* \"#utility.yul\":194:195   */\n  0x00\n    /* \"#utility.yul\":187:199   */\n  revert\n    /* \"#utility.yul\":334:411   */\ntag_10:\n    /* \"#utility.yul\":371:378   */\n  0x00\n    /* \"#utility.yul\":400:405   */\n  dup2\n    /* \"#utility.yul\":389:405   */\n  swap1\n  pop\n    /* \"#utility.yul\":334:411   */\n  swap2\n  swap1\n  pop\n  jump\t// out\n    /* \"#utility.yul\":417:539   */\ntag_11:\n    /* \"#utility.yul\":490:514   */\n  tag_23\n    /* \"#utility.yul\":508:513   */\n  dup2\n    /* \"#utility.yul\":490:514   */\n  tag_10\n  jump\t// in\ntag_23:\n    /* \"#utility.yul\":483:488   */\n  dup2\n    /* \"#utility.yul\":480:515   */\n  eq\n    /* \"#utility.yul\":470:533   */\n  tag_24\n  jumpi\n    /* \"#utility.yul\":529:530   */\n  0x00\n    /* \"#utility.yul\":526:527   */\n  0x00\n    /* \"#utility.yul\":519:531   */\n  revert\n    /* \"#utility.yul\":470:533   */\ntag_24:\n    /* \"#utility.yul\":417:539   */\n  pop\n  jump\t// out\n    /* \"#utility.yul\":545:688   */\ntag_12:\n    /* \"#utility.yul\":602:607   */\n  0x00\n    /* \"#utility.yul\":633:639   */\n  dup2\n    /* \"#utility.yul\":627:640   */\n  mload\n    /* \"#utility.yul\":618:640   */\n  swap1\n  pop\n    /* \"#utility.yul\":649:682   */\n  tag_26\n    /* \"#utility.yul\":676:681   */\n  dup2\n    /* \"#utility.yul\":649:682   */\n  tag_11\n  jump\t// in\ntag_26:\n    /* \"#utility.yul\":545:688   */\n  swap3\n  swap2\n  pop\n  pop\n  jump\t// out\n    /* \"#utility.yul\":694:820   */\ntag_13:\n    /* \"#utility.yul\":731:738   */\n  0x00\n    /* \"#utility.yul\":771:813   */\n  0xffffffffffffffffffffffffffffffffffffffff\n    /* \"#utility.yul\":764:769   */\n  dup3\n    /* \"#utility.yul\":760:814   */\n  and\n    /* \"#utility.yul\":749:814   */\n  swap1\n  pop\n    /* \"#utility.yul\":694:820   */\n  swap2\n  swap1\n  pop\n  jump\t// out\n    /* \"#utility.yul\":826:922   */\ntag_14:\n    /* \"#utility.yul\":863:870   */\n  0x00\n    /* \"#utility.yul\":892:916   */\n  tag_29\n    /* \"#utility.yul\":910:915   */\n  dup3\n    /* \"#utility.yul\":892:916   */\n  tag_13\n  jump\t// in\ntag_29:\n    /* \"#utility.yul\":881:916   */\n  swap1\n  pop\n    /* \"#utility.yul\":826:922   */\n  swap2\n  swap1\n  pop\n  jump\t// out\n    /* \"#utility.yul\":928:1050   */\ntag_15:\n    /* \"#utility.yul\":1001:1025   */\n  tag_31\n    /* \"#utility.yul\":1019:1024   */\n  dup2\n    /* \"#utility.yul\":1001:1025   */\n  tag_14\n  jump\t// in\ntag_31:\n    /* \"#utility.yul\":994:999   */\n  dup2\n    /* \"#utility.yul\":991:1026   */\n  eq\n    /* \"#utility.yul\":981:1044   */\n  tag_32\n  jumpi\n    /* \"#utility.yul\":1040:1041   */\n  0x00\n    /* \"#utility.yul\":1037:1038   */\n  0x00\n    /* \"#utility.yul\":1030:1042   */\n  revert\n    /* \"#utility.yul\":981:1044   */\ntag_32:\n    /* \"#utility.yul\":928:1050   */\n  pop\n  jump\t// out\n    /* \"#utility.yul\":1056:1199   */\ntag_16:\n    /* \"#utility.yul\":1113:1118   */\n  0x00\n    /* \"#utility.yul\":1144:1150   */\n  dup2\n    /* \"#utility.yul\":1138:1151   */\n  mload\n    /* \"#utility.yul\":1129:1151   */\n  swap1\n  pop\n    /* \"#utility.yul\":1160:1193   */\n  tag_34\n    /* \"#utility.yul\":1187:1192   */\n  dup2\n    /* \"#utility.yul\":1160:1193   */\n  tag_15\n  jump\t// in\ntag_34:\n    /* \"#utility.yul\":1056:1199   */\n  swap3\n  swap2\n  pop\n  pop\n  jump\t// out\n    /* \"#utility.yul\":1205:1712   */\ntag_3:\n    /* \"#utility.yul\":1284:1290   */\n  0x00\n    /* \"#utility.yul\":1292:1298   */\n  0x00\n    /* \"#utility.yul\":1341:1343   */\n  0x40\n    /* \"#utility.yul\":1329:1338   */\n  dup4\n    /* \"#utility.yul\":1320:1327   */\n  dup6\n    /* \"#utility.yul\":1316:1339   */\n  sub\n    /* \"#utility.yul\":1312:1344   */\n  slt\n    /* \"#utility.yul\":1309:1428   */\n  iszero\n  tag_36\n  jumpi\n    /* \"#utility.yul\":1347:1426   */\n  tag_37\n  tag_8\n  jump\t// in\ntag_37:\n    /* \"#utility.yul\":1309:1428   */\ntag_36:\n    /* \"#utility.yul\":1467:1468   */\n  0x00\n    /* \"#utility.yul\":1492:1556   */\n  tag_38\n    /* \"#utility.yul\":1548:1555   */\n  dup6\n    /* \"#utility.yul\":1539:1545   */\n  dup3\n    /* \"#utility.yul\":1528:1537   */\n  dup7\n    /* \"#utility.yul\":1524:1546   */\n  add\n    /* \"#utility.yul\":1492:1556   */\n  tag_12\n  jump\t// in\ntag_38:\n    /* \"#utility.yul\":1482:1556   */\n  swap3\n  pop\n    /* \"#utility.yul\":1438:1566   */\n  pop\n    /* \"#utility.yul\":1605:1607   */\n  0x20\n    /* \"#utility.yul\":1631:1695   */\n  tag_39\n    /* \"#utility.yul\":1687:1694   */\n  dup6\n    /* \"#utility.yul\":1678:1684   */\n  dup3\n    /* \"#utility.yul\":1667:1676   */\n  dup7\n    /* \"#utility.yul\":1663:1685   */\n  add\n    /* \"#utility.yul\":1631:1695   */\n  tag_16\n  jump\t// in\ntag_39:\n    /* \"#utility.yul\":1621:1695   */\n  swap2\n  pop\n    /* \"#utility.yul\":1576:1705   */\n  pop\n    /* \"#utility.yul\":1205:1712   */\n  swap3\n  pop\n  swap3\n  swap1\n  pop\n  jump\t// out\n    /* \"Campaign.sol\":57:2541  contract Campaign {... */\ntag_6:\n  dataSize(sub_0)\n  dup1\n  dataOffset(sub_0)\n  0x00\n  codecopy\n  0x00\n  return\nstop\n\nsub_0: assembly {\n        /* \"Campaign.sol\":57:2541  contract Campaign {... */\n      mstore(0x40, 0x80)\n      jumpi(tag_1, lt(calldatasize, 0x04))\n      shr(0xe0, calldataload(0x00))\n      dup1\n      0x8a9cfd55\n      gt\n      tag_10\n      jumpi\n      dup1\n      0x8a9cfd55\n      eq\n      tag_6\n      jumpi\n      dup1\n      0x937e09b1\n      eq\n      tag_7\n      jumpi\n      dup1\n      0xd7bb99ba\n      eq\n      tag_8\n      jumpi\n      dup1\n      0xd7d1bbdb\n      eq\n      tag_9\n      jumpi\n      jump(tag_1)\n    tag_10:\n      dup1\n      0x03441006\n      eq\n      tag_2\n      jumpi\n      dup1\n      0x0a144391\n      eq\n      tag_3\n      jumpi\n      dup1\n      0x481c6a75\n      eq\n      tag_4\n      jumpi\n      dup1\n      0x81d12c58\n      eq\n      tag_5\n      jumpi\n    tag_1:\n      revert(0x00, 0x00)\n        /* \"Campaign.sol\":2019:2539  function finalizeRequest(uint requestId) public managerOnly {... */\n    tag_2:\n      callvalue\n      dup1\n      iszero\n      tag_11\n      jumpi\n      revert(0x00, 0x00)\n    tag_11:\n      pop\n      tag_12\n      0x04\n      dup1\n      calldatasize\n      sub\n      dup2\n      add\n      swap1\n      tag_13\n      swap2\n      swap1\n      tag_14\n      jump\t// in\n    tag_13:\n      tag_15\n      jump\t// in\n    tag_12:\n      stop\n        /* \"Campaign.sol\":449:490  mapping(address => bool) public approvers */\n    tag_3:\n      callvalue\n      dup1\n      iszero\n      tag_16\n      jumpi\n      revert(0x00, 0x00)\n    tag_16:\n      pop\n      tag_17\n      0x04\n      dup1\n      calldatasize\n      sub\n      dup2\n      add\n      swap1\n      tag_18\n      swap2\n      swap1\n      tag_19\n      jump\t// in\n    tag_18:\n      tag_20\n      jump\t// in\n    tag_17:\n      mload(0x40)\n      tag_21\n      swap2\n      swap1\n      tag_22\n      jump\t// in\n    tag_21:\n      mload(0x40)\n      dup1\n      swap2\n      sub\n      swap1\n      return\n        /* \"Campaign.sol\":383:405  address public manager */\n    tag_4:\n      callvalue\n      dup1\n      iszero\n      tag_23\n      jumpi\n      revert(0x00, 0x00)\n    tag_23:\n      pop\n      tag_24\n      tag_25\n      jump\t// in\n    tag_24:\n      mload(0x40)\n      tag_26\n      swap2\n      swap1\n      tag_27\n      jump\t// in\n    tag_26:\n      mload(0x40)\n      dup1\n      swap2\n      sub\n      swap1\n      return\n        /* \"Campaign.sol\":337:377  mapping(uint => Request) public requests */\n    tag_5:\n      callvalue\n      dup1\n      iszero\n      tag_28\n      jumpi\n      revert(0x00, 0x00)\n    tag_28:\n      pop\n      tag_29\n      0x04\n      dup1\n      calldatasize\n      sub\n      dup2\n      add\n      swap1\n      tag_30\n      swap2\n      swap1\n      tag_14\n      jump\t// in\n    tag_30:\n      tag_31\n      jump\t// in\n    tag_29:\n      mload(0x40)\n      tag_32\n      swap6\n      swap5\n      swap4\n      swap3\n      swap2\n      swap1\n      tag_33\n      jump\t// in\n    tag_32:\n      mload(0x40)\n      dup1\n      swap2\n      sub\n      swap1\n      return\n        /* \"Campaign.sol\":1131:1607  function createRequest(... */\n    tag_6:\n      callvalue\n      dup1\n      iszero\n      tag_34\n      jumpi\n      revert(0x00, 0x00)\n    tag_34:\n      pop\n      tag_35\n      0x04\n      dup1\n      calldatasize\n      sub\n      dup2\n      add\n      swap1\n      tag_36\n      swap2\n      swap1\n      tag_37\n      jump\t// in\n    tag_36:\n      tag_38\n      jump\t// in\n    tag_35:\n      stop\n        /* \"Campaign.sol\":412:443  uint public minimumContribution */\n    tag_7:\n      callvalue\n      dup1\n      iszero\n      tag_39\n      jumpi\n      revert(0x00, 0x00)\n    tag_39:\n      pop\n      tag_40\n      tag_41\n      jump\t// in\n    tag_40:\n      mload(0x40)\n      tag_42\n      swap2\n      swap1\n      tag_43\n      jump\t// in\n    tag_42:\n      mload(0x40)\n      dup1\n      swap2\n      sub\n      swap1\n      return\n        /* \"Campaign.sol\":912:1125  function contribute() public payable {... */\n    tag_8:\n      tag_44\n      tag_45\n      jump\t// in\n    tag_44:\n      stop\n        /* \"Campaign.sol\":1613:2013  function approveRequest(uint requestId) public contributorOnly {... */\n    tag_9:\n      callvalue\n      dup1\n      iszero\n      tag_46\n      jumpi\n      revert(0x00, 0x00)\n    tag_46:\n      pop\n      tag_47\n      0x04\n      dup1\n      calldatasize\n      sub\n      dup2\n      add\n      swap1\n      tag_48\n      swap2\n      swap1\n      tag_14\n      jump\t// in\n    tag_48:\n      tag_49\n      jump\t// in\n    tag_47:\n      stop\n        /* \"Campaign.sol\":2019:2539  function finalizeRequest(uint requestId) public managerOnly {... */\n    tag_15:\n        /* \"Campaign.sol\":553:560  manager */\n      0x03\n      0x00\n      swap1\n      sload\n      swap1\n      0x0100\n      exp\n      swap1\n      div\n      0xffffffffffffffffffffffffffffffffffffffff\n      and\n        /* \"Campaign.sol\":539:560  msg.sender == manager */\n      0xffffffffffffffffffffffffffffffffffffffff\n      and\n        /* \"Campaign.sol\":539:549  msg.sender */\n      caller\n        /* \"Campaign.sol\":539:560  msg.sender == manager */\n      0xffffffffffffffffffffffffffffffffffffffff\n      and\n      eq\n        /* \"Campaign.sol\":531:594  require(msg.sender == manager, \"this function is manager-only\") */\n      tag_51\n      jumpi\n      mload(0x40)\n      0x08c379a000000000000000000000000000000000000000000000000000000000\n      dup2\n      mstore\n      0x04\n      add\n      tag_52\n      swap1\n      tag_53\n      jump\t// in\n    tag_52:\n      mload(0x40)\n      dup1\n      swap2\n      sub\n      swap1\n      revert\n    tag_51:\n        /* \"Campaign.sol\":2089:2122  Request storage requestToFinalize */\n      0x00\n        /* \"Campaign.sol\":2125:2133  requests */\n      0x02\n        /* \"Campaign.sol\":2125:2144  requests[requestId] */\n      0x00\n        /* \"Campaign.sol\":2134:2143  requestId */\n      dup4\n        /* \"Campaign.sol\":2125:2144  requests[requestId] */\n      dup2\n      mstore\n      0x20\n      add\n      swap1\n      dup2\n      mstore\n      0x20\n      add\n      0x00\n      keccak256\n        /* \"Campaign.sol\":2089:2144  Request storage requestToFinalize = requests[requestId] */\n      swap1\n      pop\n        /* \"Campaign.sol\":2174:2186  requestCount */\n      sload(0x00)\n        /* \"Campaign.sol\":2162:2171  requestId */\n      dup3\n        /* \"Campaign.sol\":2162:2186  requestId < requestCount */\n      lt\n        /* \"Campaign.sol\":2154:2213  require(requestId < requestCount, \"Request does not exist\") */\n      tag_55\n      jumpi\n      mload(0x40)\n      0x08c379a000000000000000000000000000000000000000000000000000000000\n      dup2\n      mstore\n      0x04\n      add\n      tag_56\n      swap1\n      tag_57\n      jump\t// in\n    tag_56:\n      mload(0x40)\n      dup1\n      swap2\n      sub\n      swap1\n      revert\n    tag_55:\n        /* \"Campaign.sol\":2232:2249  requestToFinalize */\n      dup1\n        /* \"Campaign.sol\":2232:2258  requestToFinalize.complete */\n      0x02\n      add\n      0x14\n      swap1\n      sload\n      swap1\n      0x0100\n      exp\n      swap1\n      div\n      0xff\n      and\n        /* \"Campaign.sol\":2231:2258  !requestToFinalize.complete */\n      iszero\n        /* \"Campaign.sol\":2223:2295  require(!requestToFinalize.complete, \"this request is already complete\") */\n      tag_58\n      jumpi\n      mload(0x40)\n      0x08c379a000000000000000000000000000000000000000000000000000000000\n      dup2\n      mstore\n      0x04\n      add\n      tag_59\n      swap1\n      tag_60\n      jump\t// in\n    tag_59:\n      mload(0x40)\n      dup1\n      swap2\n      sub\n      swap1\n      revert\n    tag_58:\n        /* \"Campaign.sol\":2365:2366  2 */\n      0x02\n        /* \"Campaign.sol\":2348:2362  approversCount */\n      sload(0x01)\n        /* \"Campaign.sol\":2348:2366  approversCount / 2 */\n      tag_61\n      swap2\n      swap1\n      tag_62\n      jump\t// in\n    tag_61:\n        /* \"Campaign.sol\":2313:2330  requestToFinalize */\n      dup2\n        /* \"Campaign.sol\":2313:2344  requestToFinalize.countApproved */\n      0x03\n      add\n      sload\n        /* \"Campaign.sol\":2313:2367  requestToFinalize.countApproved > (approversCount / 2) */\n      gt\n        /* \"Campaign.sol\":2305:2416  require(requestToFinalize.countApproved > (approversCount / 2), \"this request doesn't have approvaer majority\") */\n      tag_63\n      jumpi\n      mload(0x40)\n      0x08c379a000000000000000000000000000000000000000000000000000000000\n      dup2\n      mstore\n      0x04\n      add\n      tag_64\n      swap1\n      tag_65\n      jump\t// in\n    tag_64:\n      mload(0x40)\n      dup1\n      swap2\n      sub\n      swap1\n      revert\n    tag_63:\n        /* \"Campaign.sol\":2427:2444  requestToFinalize */\n      dup1\n        /* \"Campaign.sol\":2427:2454  requestToFinalize.recipient */\n      0x02\n      add\n      0x00\n      swap1\n      sload\n      swap1\n      0x0100\n      exp\n      swap1\n      div\n      0xffffffffffffffffffffffffffffffffffffffff\n      and\n        /* \"Campaign.sol\":2427:2463  requestToFinalize.recipient.transfer */\n      0xffffffffffffffffffffffffffffffffffffffff\n      and\n        /* \"Campaign.sol\":2427:2488  requestToFinalize.recipient.transfer(requestToFinalize.value) */\n      0x08fc\n        /* \"Campaign.sol\":2464:2481  requestToFinalize */\n      dup3\n        /* \"Campaign.sol\":2464:2487  requestToFinalize.value */\n      0x01\n      add\n      sload\n        /* \"Campaign.sol\":2427:2488  requestToFinalize.recipient.transfer(requestToFinalize.value) */\n      swap1\n      dup2\n      iszero\n      mul\n      swap1\n      mload(0x40)\n      0x00\n      mload(0x40)\n      dup1\n      dup4\n      sub\n      dup2\n      dup6\n      dup9\n      dup9\n      call\n      swap4\n      pop\n      pop\n      pop\n      pop\n      iszero\n      dup1\n      iszero\n      tag_67\n      jumpi\n      returndatacopy(0x00, 0x00, returndatasize)\n      revert(0x00, returndatasize)\n    tag_67:\n      pop\n        /* \"Campaign.sol\":2528:2532  true */\n      0x01\n        /* \"Campaign.sol\":2499:2516  requestToFinalize */\n      dup2\n        /* \"Campaign.sol\":2499:2525  requestToFinalize.complete */\n      0x02\n      add\n      0x14\n        /* \"Campaign.sol\":2499:2532  requestToFinalize.complete = true */\n      0x0100\n      exp\n      dup2\n      sload\n      dup2\n      0xff\n      mul\n      not\n      and\n      swap1\n      dup4\n      iszero\n      iszero\n      mul\n      or\n      swap1\n      sstore\n      pop\n        /* \"Campaign.sol\":2079:2539  {... */\n      pop\n        /* \"Campaign.sol\":2019:2539  function finalizeRequest(uint requestId) public managerOnly {... */\n      pop\n      jump\t// out\n        /* \"Campaign.sol\":449:490  mapping(address => bool) public approvers */\n    tag_20:\n      mstore(0x20, 0x05)\n      dup1\n      0x00\n      mstore\n      keccak256(0x00, 0x40)\n      0x00\n      swap2\n      pop\n      sload\n      swap1\n      0x0100\n      exp\n      swap1\n      div\n      0xff\n      and\n      dup2\n      jump\t// out\n        /* \"Campaign.sol\":383:405  address public manager */\n    tag_25:\n      0x03\n      0x00\n      swap1\n      sload\n      swap1\n      0x0100\n      exp\n      swap1\n      div\n      0xffffffffffffffffffffffffffffffffffffffff\n      and\n      dup2\n      jump\t// out\n        /* \"Campaign.sol\":337:377  mapping(uint => Request) public requests */\n    tag_31:\n      mstore(0x20, 0x02)\n      dup1\n      0x00\n      mstore\n      keccak256(0x00, 0x40)\n      0x00\n      swap2\n      pop\n      swap1\n      pop\n      dup1\n      0x00\n      add\n      dup1\n      sload\n      tag_68\n      swap1\n      tag_69\n      jump\t// in\n    tag_68:\n      dup1\n      0x1f\n      add\n      0x20\n      dup1\n      swap2\n      div\n      mul\n      0x20\n      add\n      mload(0x40)\n      swap1\n      dup2\n      add\n      0x40\n      mstore\n      dup1\n      swap3\n      swap2\n      swap1\n      dup2\n      dup2\n      mstore\n      0x20\n      add\n      dup3\n      dup1\n      sload\n      tag_70\n      swap1\n      tag_69\n      jump\t// in\n    tag_70:\n      dup1\n      iszero\n      tag_71\n      jumpi\n      dup1\n      0x1f\n      lt\n      tag_72\n      jumpi\n      0x0100\n      dup1\n      dup4\n      sload\n      div\n      mul\n      dup4\n      mstore\n      swap2\n      0x20\n      add\n      swap2\n      jump(tag_71)\n    tag_72:\n      dup3\n      add\n      swap2\n      swap1\n      0x00\n      mstore\n      keccak256(0x00, 0x20)\n      swap1\n    tag_73:\n      dup2\n      sload\n      dup2\n      mstore\n      swap1\n      0x01\n      add\n      swap1\n      0x20\n      add\n      dup1\n      dup4\n      gt\n      tag_73\n      jumpi\n      dup3\n      swap1\n      sub\n      0x1f\n      and\n      dup3\n      add\n      swap2\n    tag_71:\n      pop\n      pop\n      pop\n      pop\n      pop\n      swap1\n      dup1\n      0x01\n      add\n      sload\n      swap1\n      dup1\n      0x02\n      add\n      0x00\n      swap1\n      sload\n      swap1\n      0x0100\n      exp\n      swap1\n      div\n      0xffffffffffffffffffffffffffffffffffffffff\n      and\n      swap1\n      dup1\n      0x02\n      add\n      0x14\n      swap1\n      sload\n      swap1\n      0x0100\n      exp\n      swap1\n      div\n      0xff\n      and\n      swap1\n      dup1\n      0x03\n      add\n      sload\n      swap1\n      pop\n      dup6\n      jump\t// out\n        /* \"Campaign.sol\":1131:1607  function createRequest(... */\n    tag_38:\n        /* \"Campaign.sol\":553:560  manager */\n      0x03\n      0x00\n      swap1\n      sload\n      swap1\n      0x0100\n      exp\n      swap1\n      div\n      0xffffffffffffffffffffffffffffffffffffffff\n      and\n        /* \"Campaign.sol\":539:560  msg.sender == manager */\n      0xffffffffffffffffffffffffffffffffffffffff\n      and\n        /* \"Campaign.sol\":539:549  msg.sender */\n      caller\n        /* \"Campaign.sol\":539:560  msg.sender == manager */\n      0xffffffffffffffffffffffffffffffffffffffff\n      and\n      eq\n        /* \"Campaign.sol\":531:594  require(msg.sender == manager, \"this function is manager-only\") */\n      tag_75\n      jumpi\n      mload(0x40)\n      0x08c379a000000000000000000000000000000000000000000000000000000000\n      dup2\n      mstore\n      0x04\n      add\n      tag_76\n      swap1\n      tag_53\n      jump\t// in\n    tag_76:\n      mload(0x40)\n      dup1\n      swap2\n      sub\n      swap1\n      revert\n    tag_75:\n        /* \"Campaign.sol\":1280:1306  Request storage newRequest */\n      0x00\n        /* \"Campaign.sol\":1309:1317  requests */\n      0x02\n        /* \"Campaign.sol\":1309:1331  requests[requestCount] */\n      0x00\n        /* \"Campaign.sol\":1318:1330  requestCount */\n      sload(0x00)\n        /* \"Campaign.sol\":1309:1331  requests[requestCount] */\n      dup2\n      mstore\n      0x20\n      add\n      swap1\n      dup2\n      mstore\n      0x20\n      add\n      0x00\n      keccak256\n        /* \"Campaign.sol\":1280:1331  Request storage newRequest = requests[requestCount] */\n      swap1\n      pop\n        /* \"Campaign.sol\":1413:1424  description */\n      dup4\n        /* \"Campaign.sol\":1388:1398  newRequest */\n      dup2\n        /* \"Campaign.sol\":1388:1410  newRequest.description */\n      0x00\n      add\n        /* \"Campaign.sol\":1388:1424  newRequest.description = description */\n      swap1\n      dup2\n      tag_78\n      swap2\n      swap1\n      tag_79\n      jump\t// in\n    tag_78:\n      pop\n        /* \"Campaign.sol\":1453:1458  value */\n      dup3\n        /* \"Campaign.sol\":1434:1444  newRequest */\n      dup2\n        /* \"Campaign.sol\":1434:1450  newRequest.value */\n      0x01\n      add\n        /* \"Campaign.sol\":1434:1458  newRequest.value = value */\n      dup2\n      swap1\n      sstore\n      pop\n        /* \"Campaign.sol\":1491:1500  recipient */\n      dup2\n        /* \"Campaign.sol\":1468:1478  newRequest */\n      dup2\n        /* \"Campaign.sol\":1468:1488  newRequest.recipient */\n      0x02\n      add\n      0x00\n        /* \"Campaign.sol\":1468:1500  newRequest.recipient = recipient */\n      0x0100\n      exp\n      dup2\n      sload\n      dup2\n      0xffffffffffffffffffffffffffffffffffffffff\n      mul\n      not\n      and\n      swap1\n      dup4\n      0xffffffffffffffffffffffffffffffffffffffff\n      and\n      mul\n      or\n      swap1\n      sstore\n      pop\n        /* \"Campaign.sol\":1532:1537  false */\n      0x00\n        /* \"Campaign.sol\":1510:1520  newRequest */\n      dup2\n        /* \"Campaign.sol\":1510:1529  newRequest.complete */\n      0x02\n      add\n      0x14\n        /* \"Campaign.sol\":1510:1537  newRequest.complete = false */\n      0x0100\n      exp\n      dup2\n      sload\n      dup2\n      0xff\n      mul\n      not\n      and\n      swap1\n      dup4\n      iszero\n      iszero\n      mul\n      or\n      swap1\n      sstore\n      pop\n        /* \"Campaign.sol\":1574:1575  0 */\n      0x00\n        /* \"Campaign.sol\":1547:1557  newRequest */\n      dup2\n        /* \"Campaign.sol\":1547:1571  newRequest.countApproved */\n      0x03\n      add\n        /* \"Campaign.sol\":1547:1575  newRequest.countApproved = 0 */\n      dup2\n      swap1\n      sstore\n      pop\n        /* \"Campaign.sol\":1586:1598  requestCount */\n      0x00\n      0x00\n        /* \"Campaign.sol\":1586:1600  requestCount++ */\n      dup2\n      sload\n      dup1\n      swap3\n      swap2\n      swap1\n      tag_80\n      swap1\n      tag_81\n      jump\t// in\n    tag_80:\n      swap2\n      swap1\n      pop\n      sstore\n      pop\n        /* \"Campaign.sol\":1269:1607  {... */\n      pop\n        /* \"Campaign.sol\":1131:1607  function createRequest(... */\n      pop\n      pop\n      pop\n      jump\t// out\n        /* \"Campaign.sol\":412:443  uint public minimumContribution */\n    tag_41:\n      sload(0x04)\n      dup2\n      jump\t// out\n        /* \"Campaign.sol\":912:1125  function contribute() public payable {... */\n    tag_45:\n        /* \"Campaign.sol\":980:999  minimumContribution */\n      sload(0x04)\n        /* \"Campaign.sol\":967:976  msg.value */\n      callvalue\n        /* \"Campaign.sol\":967:999  msg.value >= minimumContribution */\n      lt\n      iszero\n        /* \"Campaign.sol\":959:1054  require(msg.value >= minimumContribution, \"contribution must be greater or equal than minimum\") */\n      tag_83\n      jumpi\n      mload(0x40)\n      0x08c379a000000000000000000000000000000000000000000000000000000000\n      dup2\n      mstore\n      0x04\n      add\n      tag_84\n      swap1\n      tag_85\n      jump\t// in\n    tag_84:\n      mload(0x40)\n      dup1\n      swap2\n      sub\n      swap1\n      revert\n    tag_83:\n        /* \"Campaign.sol\":1088:1092  true */\n      0x01\n        /* \"Campaign.sol\":1064:1073  approvers */\n      0x05\n        /* \"Campaign.sol\":1064:1085  approvers[msg.sender] */\n      0x00\n        /* \"Campaign.sol\":1074:1084  msg.sender */\n      caller\n        /* \"Campaign.sol\":1064:1085  approvers[msg.sender] */\n      0xffffffffffffffffffffffffffffffffffffffff\n      and\n      0xffffffffffffffffffffffffffffffffffffffff\n      and\n      dup2\n      mstore\n      0x20\n      add\n      swap1\n      dup2\n      mstore\n      0x20\n      add\n      0x00\n      keccak256\n      0x00\n        /* \"Campaign.sol\":1064:1092  approvers[msg.sender] = true */\n      0x0100\n      exp\n      dup2\n      sload\n      dup2\n      0xff\n      mul\n      not\n      and\n      swap1\n      dup4\n      iszero\n      iszero\n      mul\n      or\n      swap1\n      sstore\n      pop\n        /* \"Campaign.sol\":1102:1116  approversCount */\n      0x01\n      0x00\n        /* \"Campaign.sol\":1102:1118  approversCount++ */\n      dup2\n      sload\n      dup1\n      swap3\n      swap2\n      swap1\n      tag_86\n      swap1\n      tag_81\n      jump\t// in\n    tag_86:\n      swap2\n      swap1\n      pop\n      sstore\n      pop\n        /* \"Campaign.sol\":912:1125  function contribute() public payable {... */\n      jump\t// out\n        /* \"Campaign.sol\":1613:2013  function approveRequest(uint requestId) public contributorOnly {... */\n    tag_49:\n        /* \"Campaign.sol\":663:672  approvers */\n      0x05\n        /* \"Campaign.sol\":663:684  approvers[msg.sender] */\n      0x00\n        /* \"Campaign.sol\":673:683  msg.sender */\n      caller\n        /* \"Campaign.sol\":663:684  approvers[msg.sender] */\n      0xffffffffffffffffffffffffffffffffffffffff\n      and\n      0xffffffffffffffffffffffffffffffffffffffff\n      and\n      dup2\n      mstore\n      0x20\n      add\n      swap1\n      dup2\n      mstore\n      0x20\n      add\n      0x00\n      keccak256\n      0x00\n      swap1\n      sload\n      swap1\n      0x0100\n      exp\n      swap1\n      div\n      0xff\n      and\n        /* \"Campaign.sol\":655:726  require(approvers[msg.sender], \"this function is contributorOnly-only\") */\n      tag_88\n      jumpi\n      mload(0x40)\n      0x08c379a000000000000000000000000000000000000000000000000000000000\n      dup2\n      mstore\n      0x04\n      add\n      tag_89\n      swap1\n      tag_90\n      jump\t// in\n    tag_89:\n      mload(0x40)\n      dup1\n      swap2\n      sub\n      swap1\n      revert\n    tag_88:\n        /* \"Campaign.sol\":1686:1718  Request storage requestToApprove */\n      0x00\n        /* \"Campaign.sol\":1721:1729  requests */\n      0x02\n        /* \"Campaign.sol\":1721:1740  requests[requestId] */\n      0x00\n        /* \"Campaign.sol\":1730:1739  requestId */\n      dup4\n        /* \"Campaign.sol\":1721:1740  requests[requestId] */\n      dup2\n      mstore\n      0x20\n      add\n      swap1\n      dup2\n      mstore\n      0x20\n      add\n      0x00\n      keccak256\n        /* \"Campaign.sol\":1686:1740  Request storage requestToApprove = requests[requestId] */\n      swap1\n      pop\n        /* \"Campaign.sol\":1770:1782  requestCount */\n      sload(0x00)\n        /* \"Campaign.sol\":1758:1767  requestId */\n      dup3\n        /* \"Campaign.sol\":1758:1782  requestId < requestCount */\n      lt\n        /* \"Campaign.sol\":1750:1809  require(requestId < requestCount, \"Request does not exist\") */\n      tag_92\n      jumpi\n      mload(0x40)\n      0x08c379a000000000000000000000000000000000000000000000000000000000\n      dup2\n      mstore\n      0x04\n      add\n      tag_93\n      swap1\n      tag_57\n      jump\t// in\n    tag_93:\n      mload(0x40)\n      dup1\n      swap2\n      sub\n      swap1\n      revert\n    tag_92:\n        /* \"Campaign.sol\":1828:1844  requestToApprove */\n      dup1\n        /* \"Campaign.sol\":1828:1854  requestToApprove.approvals */\n      0x04\n      add\n        /* \"Campaign.sol\":1828:1866  requestToApprove.approvals[msg.sender] */\n      0x00\n        /* \"Campaign.sol\":1855:1865  msg.sender */\n      caller\n        /* \"Campaign.sol\":1828:1866  requestToApprove.approvals[msg.sender] */\n      0xffffffffffffffffffffffffffffffffffffffff\n      and\n      0xffffffffffffffffffffffffffffffffffffffff\n      and\n      dup2\n      mstore\n      0x20\n      add\n      swap1\n      dup2\n      mstore\n      0x20\n      add\n      0x00\n      keccak256\n      0x00\n      swap1\n      sload\n      swap1\n      0x0100\n      exp\n      swap1\n      div\n      0xff\n      and\n        /* \"Campaign.sol\":1827:1866  !requestToApprove.approvals[msg.sender] */\n      iszero\n        /* \"Campaign.sol\":1819:1908  require(!requestToApprove.approvals[msg.sender], \"you have already approved the request\") */\n      tag_94\n      jumpi\n      mload(0x40)\n      0x08c379a000000000000000000000000000000000000000000000000000000000\n      dup2\n      mstore\n      0x04\n      add\n      tag_95\n      swap1\n      tag_96\n      jump\t// in\n    tag_95:\n      mload(0x40)\n      dup1\n      swap2\n      sub\n      swap1\n      revert\n    tag_94:\n        /* \"Campaign.sol\":1960:1964  true */\n      0x01\n        /* \"Campaign.sol\":1919:1935  requestToApprove */\n      dup2\n        /* \"Campaign.sol\":1919:1945  requestToApprove.approvals */\n      0x04\n      add\n        /* \"Campaign.sol\":1919:1957  requestToApprove.approvals[msg.sender] */\n      0x00\n        /* \"Campaign.sol\":1946:1956  msg.sender */\n      caller\n        /* \"Campaign.sol\":1919:1957  requestToApprove.approvals[msg.sender] */\n      0xffffffffffffffffffffffffffffffffffffffff\n      and\n      0xffffffffffffffffffffffffffffffffffffffff\n      and\n      dup2\n      mstore\n      0x20\n      add\n      swap1\n      dup2\n      mstore\n      0x20\n      add\n      0x00\n      keccak256\n      0x00\n        /* \"Campaign.sol\":1919:1964  requestToApprove.approvals[msg.sender] = true */\n      0x0100\n      exp\n      dup2\n      sload\n      dup2\n      0xff\n      mul\n      not\n      and\n      swap1\n      dup4\n      iszero\n      iszero\n      mul\n      or\n      swap1\n      sstore\n      pop\n        /* \"Campaign.sol\":1974:1990  requestToApprove */\n      dup1\n        /* \"Campaign.sol\":1974:2004  requestToApprove.countApproved */\n      0x03\n      add\n      0x00\n        /* \"Campaign.sol\":1974:2006  requestToApprove.countApproved++ */\n      dup2\n      sload\n      dup1\n      swap3\n      swap2\n      swap1\n      tag_97\n      swap1\n      tag_81\n      jump\t// in\n    tag_97:\n      swap2\n      swap1\n      pop\n      sstore\n      pop\n        /* \"Campaign.sol\":1676:2013  {... */\n      pop\n        /* \"Campaign.sol\":1613:2013  function approveRequest(uint requestId) public contributorOnly {... */\n      pop\n      jump\t// out\n        /* \"#utility.yul\":7:82   */\n    tag_98:\n        /* \"#utility.yul\":40:46   */\n      0x00\n        /* \"#utility.yul\":73:75   */\n      0x40\n        /* \"#utility.yul\":67:76   */\n      mload\n        /* \"#utility.yul\":57:76   */\n      swap1\n      pop\n        /* \"#utility.yul\":7:82   */\n      swap1\n      jump\t// out\n        /* \"#utility.yul\":88:205   */\n    tag_99:\n        /* \"#utility.yul\":197:198   */\n      0x00\n        /* \"#utility.yul\":194:195   */\n      0x00\n        /* \"#utility.yul\":187:199   */\n      revert\n        /* \"#utility.yul\":211:328   */\n    tag_100:\n        /* \"#utility.yul\":320:321   */\n      0x00\n        /* \"#utility.yul\":317:318   */\n      0x00\n        /* \"#utility.yul\":310:322   */\n      revert\n        /* \"#utility.yul\":334:411   */\n    tag_101:\n        /* \"#utility.yul\":371:378   */\n      0x00\n        /* \"#utility.yul\":400:405   */\n      dup2\n        /* \"#utility.yul\":389:405   */\n      swap1\n      pop\n        /* \"#utility.yul\":334:411   */\n      swap2\n      swap1\n      pop\n      jump\t// out\n        /* \"#utility.yul\":417:539   */\n    tag_102:\n        /* \"#utility.yul\":490:514   */\n      tag_168\n        /* \"#utility.yul\":508:513   */\n      dup2\n        /* \"#utility.yul\":490:514   */\n      tag_101\n      jump\t// in\n    tag_168:\n        /* \"#utility.yul\":483:488   */\n      dup2\n        /* \"#utility.yul\":480:515   */\n      eq\n        /* \"#utility.yul\":470:533   */\n      tag_169\n      jumpi\n        /* \"#utility.yul\":529:530   */\n      0x00\n        /* \"#utility.yul\":526:527   */\n      0x00\n        /* \"#utility.yul\":519:531   */\n      revert\n        /* \"#utility.yul\":470:533   */\n    tag_169:\n        /* \"#utility.yul\":417:539   */\n      pop\n      jump\t// out\n        /* \"#utility.yul\":545:684   */\n    tag_103:\n        /* \"#utility.yul\":591:596   */\n      0x00\n        /* \"#utility.yul\":629:635   */\n      dup2\n        /* \"#utility.yul\":616:636   */\n      calldataload\n        /* \"#utility.yul\":607:636   */\n      swap1\n      pop\n        /* \"#utility.yul\":645:678   */\n      tag_171\n        /* \"#utility.yul\":672:677   */\n      dup2\n        /* \"#utility.yul\":645:678   */\n      tag_102\n      jump\t// in\n    tag_171:\n        /* \"#utility.yul\":545:684   */\n      swap3\n      swap2\n      pop\n      pop\n      jump\t// out\n        /* \"#utility.yul\":690:1019   */\n    tag_14:\n        /* \"#utility.yul\":749:755   */\n      0x00\n        /* \"#utility.yul\":798:800   */\n      0x20\n        /* \"#utility.yul\":786:795   */\n      dup3\n        /* \"#utility.yul\":777:784   */\n      dup5\n        /* \"#utility.yul\":773:796   */\n      sub\n        /* \"#utility.yul\":769:801   */\n      slt\n        /* \"#utility.yul\":766:885   */\n      iszero\n      tag_173\n      jumpi\n        /* \"#utility.yul\":804:883   */\n      tag_174\n      tag_99\n      jump\t// in\n    tag_174:\n        /* \"#utility.yul\":766:885   */\n    tag_173:\n        /* \"#utility.yul\":924:925   */\n      0x00\n        /* \"#utility.yul\":949:1002   */\n      tag_175\n        /* \"#utility.yul\":994:1001   */\n      dup5\n        /* \"#utility.yul\":985:991   */\n      dup3\n        /* \"#utility.yul\":974:983   */\n      dup6\n        /* \"#utility.yul\":970:992   */\n      add\n        /* \"#utility.yul\":949:1002   */\n      tag_103\n      jump\t// in\n    tag_175:\n        /* \"#utility.yul\":939:1002   */\n      swap2\n      pop\n        /* \"#utility.yul\":895:1012   */\n      pop\n        /* \"#utility.yul\":690:1019   */\n      swap3\n      swap2\n      pop\n      pop\n      jump\t// out\n        /* \"#utility.yul\":1025:1151   */\n    tag_104:\n        /* \"#utility.yul\":1062:1069   */\n      0x00\n        /* \"#utility.yul\":1102:1144   */\n      0xffffffffffffffffffffffffffffffffffffffff\n        /* \"#utility.yul\":1095:1100   */\n      dup3\n        /* \"#utility.yul\":1091:1145   */\n      and\n        /* \"#utility.yul\":1080:1145   */\n      swap1\n      pop\n        /* \"#utility.yul\":1025:1151   */\n      swap2\n      swap1\n      pop\n      jump\t// out\n        /* \"#utility.yul\":1157:1253   */\n    tag_105:\n        /* \"#utility.yul\":1194:1201   */\n      0x00\n        /* \"#utility.yul\":1223:1247   */\n      tag_178\n        /* \"#utility.yul\":1241:1246   */\n      dup3\n        /* \"#utility.yul\":1223:1247   */\n      tag_104\n      jump\t// in\n    tag_178:\n        /* \"#utility.yul\":1212:1247   */\n      swap1\n      pop\n        /* \"#utility.yul\":1157:1253   */\n      swap2\n      swap1\n      pop\n      jump\t// out\n        /* \"#utility.yul\":1259:1381   */\n    tag_106:\n        /* \"#utility.yul\":1332:1356   */\n      tag_180\n        /* \"#utility.yul\":1350:1355   */\n      dup2\n        /* \"#utility.yul\":1332:1356   */\n      tag_105\n      jump\t// in\n    tag_180:\n        /* \"#utility.yul\":1325:1330   */\n      dup2\n        /* \"#utility.yul\":1322:1357   */\n      eq\n        /* \"#utility.yul\":1312:1375   */\n      tag_181\n      jumpi\n        /* \"#utility.yul\":1371:1372   */\n      0x00\n        /* \"#utility.yul\":1368:1369   */\n      0x00\n        /* \"#utility.yul\":1361:1373   */\n      revert\n        /* \"#utility.yul\":1312:1375   */\n    tag_181:\n        /* \"#utility.yul\":1259:1381   */\n      pop\n      jump\t// out\n        /* \"#utility.yul\":1387:1526   */\n    tag_107:\n        /* \"#utility.yul\":1433:1438   */\n      0x00\n        /* \"#utility.yul\":1471:1477   */\n      dup2\n        /* \"#utility.yul\":1458:1478   */\n      calldataload\n        /* \"#utility.yul\":1449:1478   */\n      swap1\n      pop\n        /* \"#utility.yul\":1487:1520   */\n      tag_183\n        /* \"#utility.yul\":1514:1519   */\n      dup2\n        /* \"#utility.yul\":1487:1520   */\n      tag_106\n      jump\t// in\n    tag_183:\n        /* \"#utility.yul\":1387:1526   */\n      swap3\n      swap2\n      pop\n      pop\n      jump\t// out\n        /* \"#utility.yul\":1532:1861   */\n    tag_19:\n        /* \"#utility.yul\":1591:1597   */\n      0x00\n        /* \"#utility.yul\":1640:1642   */\n      0x20\n        /* \"#utility.yul\":1628:1637   */\n      dup3\n        /* \"#utility.yul\":1619:1626   */\n      dup5\n        /* \"#utility.yul\":1615:1638   */\n      sub\n        /* \"#utility.yul\":1611:1643   */\n      slt\n        /* \"#utility.yul\":1608:1727   */\n      iszero\n      tag_185\n      jumpi\n        /* \"#utility.yul\":1646:1725   */\n      tag_186\n      tag_99\n      jump\t// in\n    tag_186:\n        /* \"#utility.yul\":1608:1727   */\n    tag_185:\n        /* \"#utility.yul\":1766:1767   */\n      0x00\n        /* \"#utility.yul\":1791:1844   */\n      tag_187\n        /* \"#utility.yul\":1836:1843   */\n      dup5\n        /* \"#utility.yul\":1827:1833   */\n      dup3\n        /* \"#utility.yul\":1816:1825   */\n      dup6\n        /* \"#utility.yul\":1812:1834   */\n      add\n        /* \"#utility.yul\":1791:1844   */\n      tag_107\n      jump\t// in\n    tag_187:\n        /* \"#utility.yul\":1781:1844   */\n      swap2\n      pop\n        /* \"#utility.yul\":1737:1854   */\n      pop\n        /* \"#utility.yul\":1532:1861   */\n      swap3\n      swap2\n      pop\n      pop\n      jump\t// out\n        /* \"#utility.yul\":1867:1957   */\n    tag_108:\n        /* \"#utility.yul\":1901:1908   */\n      0x00\n        /* \"#utility.yul\":1944:1949   */\n      dup2\n        /* \"#utility.yul\":1937:1950   */\n      iszero\n        /* \"#utility.yul\":1930:1951   */\n      iszero\n        /* \"#utility.yul\":1919:1951   */\n      swap1\n      pop\n        /* \"#utility.yul\":1867:1957   */\n      swap2\n      swap1\n      pop\n      jump\t// out\n        /* \"#utility.yul\":1963:2072   */\n    tag_109:\n        /* \"#utility.yul\":2044:2065   */\n      tag_190\n        /* \"#utility.yul\":2059:2064   */\n      dup2\n        /* \"#utility.yul\":2044:2065   */\n      tag_108\n      jump\t// in\n    tag_190:\n        /* \"#utility.yul\":2039:2042   */\n      dup3\n        /* \"#utility.yul\":2032:2066   */\n      mstore\n        /* \"#utility.yul\":1963:2072   */\n      pop\n      pop\n      jump\t// out\n        /* \"#utility.yul\":2078:2288   */\n    tag_22:\n        /* \"#utility.yul\":2165:2169   */\n      0x00\n        /* \"#utility.yul\":2203:2205   */\n      0x20\n        /* \"#utility.yul\":2192:2201   */\n      dup3\n        /* \"#utility.yul\":2188:2206   */\n      add\n        /* \"#utility.yul\":2180:2206   */\n      swap1\n      pop\n        /* \"#utility.yul\":2216:2281   */\n      tag_192\n        /* \"#utility.yul\":2278:2279   */\n      0x00\n        /* \"#utility.yul\":2267:2276   */\n      dup4\n        /* \"#utility.yul\":2263:2280   */\n      add\n        /* \"#utility.yul\":2254:2260   */\n      dup5\n        /* \"#utility.yul\":2216:2281   */\n      tag_109\n      jump\t// in\n    tag_192:\n        /* \"#utility.yul\":2078:2288   */\n      swap3\n      swap2\n      pop\n      pop\n      jump\t// out\n        /* \"#utility.yul\":2294:2412   */\n    tag_110:\n        /* \"#utility.yul\":2381:2405   */\n      tag_194\n        /* \"#utility.yul\":2399:2404   */\n      dup2\n        /* \"#utility.yul\":2381:2405   */\n      tag_105\n      jump\t// in\n    tag_194:\n        /* \"#utility.yul\":2376:2379   */\n      dup3\n        /* \"#utility.yul\":2369:2406   */\n      mstore\n        /* \"#utility.yul\":2294:2412   */\n      pop\n      pop\n      jump\t// out\n        /* \"#utility.yul\":2418:2640   */\n    tag_27:\n        /* \"#utility.yul\":2511:2515   */\n      0x00\n        /* \"#utility.yul\":2549:2551   */\n      0x20\n        /* \"#utility.yul\":2538:2547   */\n      dup3\n        /* \"#utility.yul\":2534:2552   */\n      add\n        /* \"#utility.yul\":2526:2552   */\n      swap1\n      pop\n        /* \"#utility.yul\":2562:2633   */\n      tag_196\n        /* \"#utility.yul\":2630:2631   */\n      0x00\n        /* \"#utility.yul\":2619:2628   */\n      dup4\n        /* \"#utility.yul\":2615:2632   */\n      add\n        /* \"#utility.yul\":2606:2612   */\n      dup5\n        /* \"#utility.yul\":2562:2633   */\n      tag_110\n      jump\t// in\n    tag_196:\n        /* \"#utility.yul\":2418:2640   */\n      swap3\n      swap2\n      pop\n      pop\n      jump\t// out\n        /* \"#utility.yul\":2646:2745   */\n    tag_111:\n        /* \"#utility.yul\":2698:2704   */\n      0x00\n        /* \"#utility.yul\":2732:2737   */\n      dup2\n        /* \"#utility.yul\":2726:2738   */\n      mload\n        /* \"#utility.yul\":2716:2738   */\n      swap1\n      pop\n        /* \"#utility.yul\":2646:2745   */\n      swap2\n      swap1\n      pop\n      jump\t// out\n        /* \"#utility.yul\":2751:2920   */\n    tag_112:\n        /* \"#utility.yul\":2835:2846   */\n      0x00\n        /* \"#utility.yul\":2869:2875   */\n      dup3\n        /* \"#utility.yul\":2864:2867   */\n      dup3\n        /* \"#utility.yul\":2857:2876   */\n      mstore\n        /* \"#utility.yul\":2909:2913   */\n      0x20\n        /* \"#utility.yul\":2904:2907   */\n      dup3\n        /* \"#utility.yul\":2900:2914   */\n      add\n        /* \"#utility.yul\":2885:2914   */\n      swap1\n      pop\n        /* \"#utility.yul\":2751:2920   */\n      swap3\n      swap2\n      pop\n      pop\n      jump\t// out\n        /* \"#utility.yul\":2926:3065   */\n    tag_113:\n        /* \"#utility.yul\":3015:3021   */\n      dup3\n        /* \"#utility.yul\":3010:3013   */\n      dup2\n        /* \"#utility.yul\":3005:3008   */\n      dup4\n        /* \"#utility.yul\":2999:3022   */\n      mcopy\n        /* \"#utility.yul\":3056:3057   */\n      0x00\n        /* \"#utility.yul\":3047:3053   */\n      dup4\n        /* \"#utility.yul\":3042:3045   */\n      dup4\n        /* \"#utility.yul\":3038:3054   */\n      add\n        /* \"#utility.yul\":3031:3058   */\n      mstore\n        /* \"#utility.yul\":2926:3065   */\n      pop\n      pop\n      pop\n      jump\t// out\n        /* \"#utility.yul\":3071:3173   */\n    tag_114:\n        /* \"#utility.yul\":3112:3118   */\n      0x00\n        /* \"#utility.yul\":3163:3165   */\n      0x1f\n        /* \"#utility.yul\":3159:3166   */\n      not\n        /* \"#utility.yul\":3154:3156   */\n      0x1f\n        /* \"#utility.yul\":3147:3152   */\n      dup4\n        /* \"#utility.yul\":3143:3157   */\n      add\n        /* \"#utility.yul\":3139:3167   */\n      and\n        /* \"#utility.yul\":3129:3167   */\n      swap1\n      pop\n        /* \"#utility.yul\":3071:3173   */\n      swap2\n      swap1\n      pop\n      jump\t// out\n        /* \"#utility.yul\":3179:3556   */\n    tag_115:\n        /* \"#utility.yul\":3267:3270   */\n      0x00\n        /* \"#utility.yul\":3295:3334   */\n      tag_202\n        /* \"#utility.yul\":3328:3333   */\n      dup3\n        /* \"#utility.yul\":3295:3334   */\n      tag_111\n      jump\t// in\n    tag_202:\n        /* \"#utility.yul\":3350:3421   */\n      tag_203\n        /* \"#utility.yul\":3414:3420   */\n      dup2\n        /* \"#utility.yul\":3409:3412   */\n      dup6\n        /* \"#utility.yul\":3350:3421   */\n      tag_112\n      jump\t// in\n    tag_203:\n        /* \"#utility.yul\":3343:3421   */\n      swap4\n      pop\n        /* \"#utility.yul\":3430:3495   */\n      tag_204\n        /* \"#utility.yul\":3488:3494   */\n      dup2\n        /* \"#utility.yul\":3483:3486   */\n      dup6\n        /* \"#utility.yul\":3476:3480   */\n      0x20\n        /* \"#utility.yul\":3469:3474   */\n      dup7\n        /* \"#utility.yul\":3465:3481   */\n      add\n        /* \"#utility.yul\":3430:3495   */\n      tag_113\n      jump\t// in\n    tag_204:\n        /* \"#utility.yul\":3520:3549   */\n      tag_205\n        /* \"#utility.yul\":3542:3548   */\n      dup2\n        /* \"#utility.yul\":3520:3549   */\n      tag_114\n      jump\t// in\n    tag_205:\n        /* \"#utility.yul\":3515:3518   */\n      dup5\n        /* \"#utility.yul\":3511:3550   */\n      add\n        /* \"#utility.yul\":3504:3550   */\n      swap2\n      pop\n        /* \"#utility.yul\":3271:3556   */\n      pop\n        /* \"#utility.yul\":3179:3556   */\n      swap3\n      swap2\n      pop\n      pop\n      jump\t// out\n        /* \"#utility.yul\":3562:3680   */\n    tag_116:\n        /* \"#utility.yul\":3649:3673   */\n      tag_207\n        /* \"#utility.yul\":3667:3672   */\n      dup2\n        /* \"#utility.yul\":3649:3673   */\n      tag_101\n      jump\t// in\n    tag_207:\n        /* \"#utility.yul\":3644:3647   */\n      dup3\n        /* \"#utility.yul\":3637:3674   */\n      mstore\n        /* \"#utility.yul\":3562:3680   */\n      pop\n      pop\n      jump\t// out\n        /* \"#utility.yul\":3686:3790   */\n    tag_117:\n        /* \"#utility.yul\":3731:3738   */\n      0x00\n        /* \"#utility.yul\":3760:3784   */\n      tag_209\n        /* \"#utility.yul\":3778:3783   */\n      dup3\n        /* \"#utility.yul\":3760:3784   */\n      tag_104\n      jump\t// in\n    tag_209:\n        /* \"#utility.yul\":3749:3784   */\n      swap1\n      pop\n        /* \"#utility.yul\":3686:3790   */\n      swap2\n      swap1\n      pop\n      jump\t// out\n        /* \"#utility.yul\":3796:3938   */\n    tag_118:\n        /* \"#utility.yul\":3899:3931   */\n      tag_211\n        /* \"#utility.yul\":3925:3930   */\n      dup2\n        /* \"#utility.yul\":3899:3931   */\n      tag_117\n      jump\t// in\n    tag_211:\n        /* \"#utility.yul\":3894:3897   */\n      dup3\n        /* \"#utility.yul\":3887:3932   */\n      mstore\n        /* \"#utility.yul\":3796:3938   */\n      pop\n      pop\n      jump\t// out\n        /* \"#utility.yul\":3944:4719   */\n    tag_33:\n        /* \"#utility.yul\":4179:4183   */\n      0x00\n        /* \"#utility.yul\":4217:4220   */\n      0xa0\n        /* \"#utility.yul\":4206:4215   */\n      dup3\n        /* \"#utility.yul\":4202:4221   */\n      add\n        /* \"#utility.yul\":4194:4221   */\n      swap1\n      pop\n        /* \"#utility.yul\":4267:4276   */\n      dup2\n        /* \"#utility.yul\":4261:4265   */\n      dup2\n        /* \"#utility.yul\":4257:4277   */\n      sub\n        /* \"#utility.yul\":4253:4254   */\n      0x00\n        /* \"#utility.yul\":4242:4251   */\n      dup4\n        /* \"#utility.yul\":4238:4255   */\n      add\n        /* \"#utility.yul\":4231:4278   */\n      mstore\n        /* \"#utility.yul\":4295:4373   */\n      tag_213\n        /* \"#utility.yul\":4368:4372   */\n      dup2\n        /* \"#utility.yul\":4359:4365   */\n      dup9\n        /* \"#utility.yul\":4295:4373   */\n      tag_115\n      jump\t// in\n    tag_213:\n        /* \"#utility.yul\":4287:4373   */\n      swap1\n      pop\n        /* \"#utility.yul\":4383:4455   */\n      tag_214\n        /* \"#utility.yul\":4451:4453   */\n      0x20\n        /* \"#utility.yul\":4440:4449   */\n      dup4\n        /* \"#utility.yul\":4436:4454   */\n      add\n        /* \"#utility.yul\":4427:4433   */\n      dup8\n        /* \"#utility.yul\":4383:4455   */\n      tag_116\n      jump\t// in\n    tag_214:\n        /* \"#utility.yul\":4465:4553   */\n      tag_215\n        /* \"#utility.yul\":4549:4551   */\n      0x40\n        /* \"#utility.yul\":4538:4547   */\n      dup4\n        /* \"#utility.yul\":4534:4552   */\n      add\n        /* \"#utility.yul\":4525:4531   */\n      dup7\n        /* \"#utility.yul\":4465:4553   */\n      tag_118\n      jump\t// in\n    tag_215:\n        /* \"#utility.yul\":4563:4629   */\n      tag_216\n        /* \"#utility.yul\":4625:4627   */\n      0x60\n        /* \"#utility.yul\":4614:4623   */\n      dup4\n        /* \"#utility.yul\":4610:4628   */\n      add\n        /* \"#utility.yul\":4601:4607   */\n      dup6\n        /* \"#utility.yul\":4563:4629   */\n      tag_109\n      jump\t// in\n    tag_216:\n        /* \"#utility.yul\":4639:4712   */\n      tag_217\n        /* \"#utility.yul\":4707:4710   */\n      0x80\n        /* \"#utility.yul\":4696:4705   */\n      dup4\n        /* \"#utility.yul\":4692:4711   */\n      add\n        /* \"#utility.yul\":4683:4689   */\n      dup5\n        /* \"#utility.yul\":4639:4712   */\n      tag_116\n      jump\t// in\n    tag_217:\n        /* \"#utility.yul\":3944:4719   */\n      swap7\n      swap6\n      pop\n      pop\n      pop\n      pop\n      pop\n      pop\n      jump\t// out\n        /* \"#utility.yul\":4725:4842   */\n    tag_119:\n        /* \"#utility.yul\":4834:4835   */\n      0x00\n        /* \"#utility.yul\":4831:4832   */\n      0x00\n        /* \"#utility.yul\":4824:4836   */\n      revert\n        /* \"#utility.yul\":4848:4965   */\n    tag_120:\n        /* \"#utility.yul\":4957:4958   */\n      0x00\n        /* \"#utility.yul\":4954:4955   */\n      0x00\n        /* \"#utility.yul\":4947:4959   */\n      revert\n        /* \"#utility.yul\":4971:5151   */\n    tag_121:\n        /* \"#utility.yul\":5019:5096   */\n      0x4e487b7100000000000000000000000000000000000000000000000000000000\n        /* \"#utility.yul\":5016:5017   */\n      0x00\n        /* \"#utility.yul\":5009:5097   */\n      mstore\n        /* \"#utility.yul\":5116:5120   */\n      0x41\n        /* \"#utility.yul\":5113:5114   */\n      0x04\n        /* \"#utility.yul\":5106:5121   */\n      mstore\n        /* \"#utility.yul\":5140:5144   */\n      0x24\n        /* \"#utility.yul\":5137:5138   */\n      0x00\n        /* \"#utility.yul\":5130:5145   */\n      revert\n        /* \"#utility.yul\":5157:5438   */\n    tag_122:\n        /* \"#utility.yul\":5240:5267   */\n      tag_222\n        /* \"#utility.yul\":5262:5266   */\n      dup3\n        /* \"#utility.yul\":5240:5267   */\n      tag_114\n      jump\t// in\n    tag_222:\n        /* \"#utility.yul\":5232:5238   */\n      dup2\n        /* \"#utility.yul\":5228:5268   */\n      add\n        /* \"#utility.yul\":5370:5376   */\n      dup2\n        /* \"#utility.yul\":5358:5368   */\n      dup2\n        /* \"#utility.yul\":5355:5377   */\n      lt\n        /* \"#utility.yul\":5334:5352   */\n      0xffffffffffffffff\n        /* \"#utility.yul\":5322:5332   */\n      dup3\n        /* \"#utility.yul\":5319:5353   */\n      gt\n        /* \"#utility.yul\":5316:5378   */\n      or\n        /* \"#utility.yul\":5313:5401   */\n      iszero\n      tag_223\n      jumpi\n        /* \"#utility.yul\":5381:5399   */\n      tag_224\n      tag_121\n      jump\t// in\n    tag_224:\n        /* \"#utility.yul\":5313:5401   */\n    tag_223:\n        /* \"#utility.yul\":5421:5431   */\n      dup1\n        /* \"#utility.yul\":5417:5419   */\n      0x40\n        /* \"#utility.yul\":5410:5432   */\n      mstore\n        /* \"#utility.yul\":5200:5438   */\n      pop\n        /* \"#utility.yul\":5157:5438   */\n      pop\n      pop\n      jump\t// out\n        /* \"#utility.yul\":5444:5573   */\n    tag_123:\n        /* \"#utility.yul\":5478:5484   */\n      0x00\n        /* \"#utility.yul\":5505:5525   */\n      tag_226\n      tag_98\n      jump\t// in\n    tag_226:\n        /* \"#utility.yul\":5495:5525   */\n      swap1\n      pop\n        /* \"#utility.yul\":5534:5567   */\n      tag_227\n        /* \"#utility.yul\":5562:5566   */\n      dup3\n        /* \"#utility.yul\":5554:5560   */\n      dup3\n        /* \"#utility.yul\":5534:5567   */\n      tag_122\n      jump\t// in\n    tag_227:\n        /* \"#utility.yul\":5444:5573   */\n      swap2\n      swap1\n      pop\n      jump\t// out\n        /* \"#utility.yul\":5579:5887   */\n    tag_124:\n        /* \"#utility.yul\":5641:5645   */\n      0x00\n        /* \"#utility.yul\":5731:5749   */\n      0xffffffffffffffff\n        /* \"#utility.yul\":5723:5729   */\n      dup3\n        /* \"#utility.yul\":5720:5750   */\n      gt\n        /* \"#utility.yul\":5717:5773   */\n      iszero\n      tag_229\n      jumpi\n        /* \"#utility.yul\":5753:5771   */\n      tag_230\n      tag_121\n      jump\t// in\n    tag_230:\n        /* \"#utility.yul\":5717:5773   */\n    tag_229:\n        /* \"#utility.yul\":5791:5820   */\n      tag_231\n        /* \"#utility.yul\":5813:5819   */\n      dup3\n        /* \"#utility.yul\":5791:5820   */\n      tag_114\n      jump\t// in\n    tag_231:\n        /* \"#utility.yul\":5783:5820   */\n      swap1\n      pop\n        /* \"#utility.yul\":5875:5879   */\n      0x20\n        /* \"#utility.yul\":5869:5873   */\n      dup2\n        /* \"#utility.yul\":5865:5880   */\n      add\n        /* \"#utility.yul\":5857:5880   */\n      swap1\n      pop\n        /* \"#utility.yul\":5579:5887   */\n      swap2\n      swap1\n      pop\n      jump\t// out\n        /* \"#utility.yul\":5893:6041   */\n    tag_125:\n        /* \"#utility.yul\":5991:5997   */\n      dup3\n        /* \"#utility.yul\":5986:5989   */\n      dup2\n        /* \"#utility.yul\":5981:5984   */\n      dup4\n        /* \"#utility.yul\":5968:5998   */\n      calldatacopy\n        /* \"#utility.yul\":6032:6033   */\n      0x00\n        /* \"#utility.yul\":6023:6029   */\n      dup4\n        /* \"#utility.yul\":6018:6021   */\n      dup4\n        /* \"#utility.yul\":6014:6030   */\n      add\n        /* \"#utility.yul\":6007:6034   */\n      mstore\n        /* \"#utility.yul\":5893:6041   */\n      pop\n      pop\n      pop\n      jump\t// out\n        /* \"#utility.yul\":6047:6472   */\n    tag_126:\n        /* \"#utility.yul\":6125:6130   */\n      0x00\n        /* \"#utility.yul\":6150:6216   */\n      tag_234\n        /* \"#utility.yul\":6166:6215   */\n      tag_235\n        /* \"#utility.yul\":6208:6214   */\n      dup5\n        /* \"#utility.yul\":6166:6215   */\n      tag_124\n      jump\t// in\n    tag_235:\n        /* \"#utility.yul\":6150:6216   */\n      tag_123\n      jump\t// in\n    tag_234:\n        /* \"#utility.yul\":6141:6216   */\n      swap1\n      pop\n        /* \"#utility.yul\":6239:6245   */\n      dup3\n        /* \"#utility.yul\":6232:6237   */\n      dup2\n        /* \"#utility.yul\":6225:6246   */\n      mstore\n        /* \"#utility.yul\":6277:6281   */\n      0x20\n        /* \"#utility.yul\":6270:6275   */\n      dup2\n        /* \"#utility.yul\":6266:6282   */\n      add\n        /* \"#utility.yul\":6315:6318   */\n      dup5\n        /* \"#utility.yul\":6306:6312   */\n      dup5\n        /* \"#utility.yul\":6301:6304   */\n      dup5\n        /* \"#utility.yul\":6297:6313   */\n      add\n        /* \"#utility.yul\":6294:6319   */\n      gt\n        /* \"#utility.yul\":6291:6403   */\n      iszero\n      tag_236\n      jumpi\n        /* \"#utility.yul\":6322:6401   */\n      tag_237\n      tag_120\n      jump\t// in\n    tag_237:\n        /* \"#utility.yul\":6291:6403   */\n    tag_236:\n        /* \"#utility.yul\":6412:6466   */\n      tag_238\n        /* \"#utility.yul\":6459:6465   */\n      dup5\n        /* \"#utility.yul\":6454:6457   */\n      dup3\n        /* \"#utility.yul\":6449:6452   */\n      dup6\n        /* \"#utility.yul\":6412:6466   */\n      tag_125\n      jump\t// in\n    tag_238:\n        /* \"#utility.yul\":6131:6472   */\n      pop\n        /* \"#utility.yul\":6047:6472   */\n      swap4\n      swap3\n      pop\n      pop\n      pop\n      jump\t// out\n        /* \"#utility.yul\":6492:6832   */\n    tag_127:\n        /* \"#utility.yul\":6548:6553   */\n      0x00\n        /* \"#utility.yul\":6597:6600   */\n      dup3\n        /* \"#utility.yul\":6590:6594   */\n      0x1f\n        /* \"#utility.yul\":6582:6588   */\n      dup4\n        /* \"#utility.yul\":6578:6595   */\n      add\n        /* \"#utility.yul\":6574:6601   */\n      slt\n        /* \"#utility.yul\":6564:6686   */\n      tag_240\n      jumpi\n        /* \"#utility.yul\":6605:6684   */\n      tag_241\n      tag_119\n      jump\t// in\n    tag_241:\n        /* \"#utility.yul\":6564:6686   */\n    tag_240:\n        /* \"#utility.yul\":6722:6728   */\n      dup2\n        /* \"#utility.yul\":6709:6729   */\n      calldataload\n        /* \"#utility.yul\":6747:6826   */\n      tag_242\n        /* \"#utility.yul\":6822:6825   */\n      dup5\n        /* \"#utility.yul\":6814:6820   */\n      dup3\n        /* \"#utility.yul\":6807:6811   */\n      0x20\n        /* \"#utility.yul\":6799:6805   */\n      dup7\n        /* \"#utility.yul\":6795:6812   */\n      add\n        /* \"#utility.yul\":6747:6826   */\n      tag_126\n      jump\t// in\n    tag_242:\n        /* \"#utility.yul\":6738:6826   */\n      swap2\n      pop\n        /* \"#utility.yul\":6554:6832   */\n      pop\n        /* \"#utility.yul\":6492:6832   */\n      swap3\n      swap2\n      pop\n      pop\n      jump\t// out\n        /* \"#utility.yul\":6838:6976   */\n    tag_128:\n        /* \"#utility.yul\":6919:6951   */\n      tag_244\n        /* \"#utility.yul\":6945:6950   */\n      dup2\n        /* \"#utility.yul\":6919:6951   */\n      tag_117\n      jump\t// in\n    tag_244:\n        /* \"#utility.yul\":6912:6917   */\n      dup2\n        /* \"#utility.yul\":6909:6952   */\n      eq\n        /* \"#utility.yul\":6899:6970   */\n      tag_245\n      jumpi\n        /* \"#utility.yul\":6966:6967   */\n      0x00\n        /* \"#utility.yul\":6963:6964   */\n      0x00\n        /* \"#utility.yul\":6956:6968   */\n      revert\n        /* \"#utility.yul\":6899:6970   */\n    tag_245:\n        /* \"#utility.yul\":6838:6976   */\n      pop\n      jump\t// out\n        /* \"#utility.yul\":6982:7137   */\n    tag_129:\n        /* \"#utility.yul\":7036:7041   */\n      0x00\n        /* \"#utility.yul\":7074:7080   */\n      dup2\n        /* \"#utility.yul\":7061:7081   */\n      calldataload\n        /* \"#utility.yul\":7052:7081   */\n      swap1\n      pop\n        /* \"#utility.yul\":7090:7131   */\n      tag_247\n        /* \"#utility.yul\":7125:7130   */\n      dup2\n        /* \"#utility.yul\":7090:7131   */\n      tag_128\n      jump\t// in\n    tag_247:\n        /* \"#utility.yul\":6982:7137   */\n      swap3\n      swap2\n      pop\n      pop\n      jump\t// out\n        /* \"#utility.yul\":7143:7958   */\n    tag_37:\n        /* \"#utility.yul\":7238:7244   */\n      0x00\n        /* \"#utility.yul\":7246:7252   */\n      0x00\n        /* \"#utility.yul\":7254:7260   */\n      0x00\n        /* \"#utility.yul\":7303:7305   */\n      0x60\n        /* \"#utility.yul\":7291:7300   */\n      dup5\n        /* \"#utility.yul\":7282:7289   */\n      dup7\n        /* \"#utility.yul\":7278:7301   */\n      sub\n        /* \"#utility.yul\":7274:7306   */\n      slt\n        /* \"#utility.yul\":7271:7390   */\n      iszero\n      tag_249\n      jumpi\n        /* \"#utility.yul\":7309:7388   */\n      tag_250\n      tag_99\n      jump\t// in\n    tag_250:\n        /* \"#utility.yul\":7271:7390   */\n    tag_249:\n        /* \"#utility.yul\":7457:7458   */\n      0x00\n        /* \"#utility.yul\":7446:7455   */\n      dup5\n        /* \"#utility.yul\":7442:7459   */\n      add\n        /* \"#utility.yul\":7429:7460   */\n      calldataload\n        /* \"#utility.yul\":7487:7505   */\n      0xffffffffffffffff\n        /* \"#utility.yul\":7479:7485   */\n      dup2\n        /* \"#utility.yul\":7476:7506   */\n      gt\n        /* \"#utility.yul\":7473:7590   */\n      iszero\n      tag_251\n      jumpi\n        /* \"#utility.yul\":7509:7588   */\n      tag_252\n      tag_100\n      jump\t// in\n    tag_252:\n        /* \"#utility.yul\":7473:7590   */\n    tag_251:\n        /* \"#utility.yul\":7614:7677   */\n      tag_253\n        /* \"#utility.yul\":7669:7676   */\n      dup7\n        /* \"#utility.yul\":7660:7666   */\n      dup3\n        /* \"#utility.yul\":7649:7658   */\n      dup8\n        /* \"#utility.yul\":7645:7667   */\n      add\n        /* \"#utility.yul\":7614:7677   */\n      tag_127\n      jump\t// in\n    tag_253:\n        /* \"#utility.yul\":7604:7677   */\n      swap4\n      pop\n        /* \"#utility.yul\":7400:7687   */\n      pop\n        /* \"#utility.yul\":7726:7728   */\n      0x20\n        /* \"#utility.yul\":7752:7805   */\n      tag_254\n        /* \"#utility.yul\":7797:7804   */\n      dup7\n        /* \"#utility.yul\":7788:7794   */\n      dup3\n        /* \"#utility.yul\":7777:7786   */\n      dup8\n        /* \"#utility.yul\":7773:7795   */\n      add\n        /* \"#utility.yul\":7752:7805   */\n      tag_103\n      jump\t// in\n    tag_254:\n        /* \"#utility.yul\":7742:7805   */\n      swap3\n      pop\n        /* \"#utility.yul\":7697:7815   */\n      pop\n        /* \"#utility.yul\":7854:7856   */\n      0x40\n        /* \"#utility.yul\":7880:7941   */\n      tag_255\n        /* \"#utility.yul\":7933:7940   */\n      dup7\n        /* \"#utility.yul\":7924:7930   */\n      dup3\n        /* \"#utility.yul\":7913:7922   */\n      dup8\n        /* \"#utility.yul\":7909:7931   */\n      add\n        /* \"#utility.yul\":7880:7941   */\n      tag_129\n      jump\t// in\n    tag_255:\n        /* \"#utility.yul\":7870:7941   */\n      swap2\n      pop\n        /* \"#utility.yul\":7825:7951   */\n      pop\n        /* \"#utility.yul\":7143:7958   */\n      swap3\n      pop\n      swap3\n      pop\n      swap3\n      jump\t// out\n        /* \"#utility.yul\":7964:8186   */\n    tag_43:\n        /* \"#utility.yul\":8057:8061   */\n      0x00\n        /* \"#utility.yul\":8095:8097   */\n      0x20\n        /* \"#utility.yul\":8084:8093   */\n      dup3\n        /* \"#utility.yul\":8080:8098   */\n      add\n        /* \"#utility.yul\":8072:8098   */\n      swap1\n      pop\n        /* \"#utility.yul\":8108:8179   */\n      tag_257\n        /* \"#utility.yul\":8176:8177   */\n      0x00\n        /* \"#utility.yul\":8165:8174   */\n      dup4\n        /* \"#utility.yul\":8161:8178   */\n      add\n        /* \"#utility.yul\":8152:8158   */\n      dup5\n        /* \"#utility.yul\":8108:8179   */\n      tag_116\n      jump\t// in\n    tag_257:\n        /* \"#utility.yul\":7964:8186   */\n      swap3\n      swap2\n      pop\n      pop\n      jump\t// out\n        /* \"#utility.yul\":8192:8371   */\n    tag_130:\n        /* \"#utility.yul\":8332:8363   */\n      0x746869732066756e6374696f6e206973206d616e616765722d6f6e6c79000000\n        /* \"#utility.yul\":8328:8329   */\n      0x00\n        /* \"#utility.yul\":8320:8326   */\n      dup3\n        /* \"#utility.yul\":8316:8330   */\n      add\n        /* \"#utility.yul\":8309:8364   */\n      mstore\n        /* \"#utility.yul\":8192:8371   */\n      pop\n      jump\t// out\n        /* \"#utility.yul\":8377:8743   */\n    tag_131:\n        /* \"#utility.yul\":8519:8522   */\n      0x00\n        /* \"#utility.yul\":8540:8607   */\n      tag_260\n        /* \"#utility.yul\":8604:8606   */\n      0x1d\n        /* \"#utility.yul\":8599:8602   */\n      dup4\n        /* \"#utility.yul\":8540:8607   */\n      tag_112\n      jump\t// in\n    tag_260:\n        /* \"#utility.yul\":8533:8607   */\n      swap2\n      pop\n        /* \"#utility.yul\":8616:8709   */\n      tag_261\n        /* \"#utility.yul\":8705:8708   */\n      dup3\n        /* \"#utility.yul\":8616:8709   */\n      tag_130\n      jump\t// in\n    tag_261:\n        /* \"#utility.yul\":8734:8736   */\n      0x20\n        /* \"#utility.yul\":8729:8732   */\n      dup3\n        /* \"#utility.yul\":8725:8737   */\n      add\n        /* \"#utility.yul\":8718:8737   */\n      swap1\n      pop\n        /* \"#utility.yul\":8377:8743   */\n      swap2\n      swap1\n      pop\n      jump\t// out\n        /* \"#utility.yul\":8749:9168   */\n    tag_53:\n        /* \"#utility.yul\":8915:8919   */\n      0x00\n        /* \"#utility.yul\":8953:8955   */\n      0x20\n        /* \"#utility.yul\":8942:8951   */\n      dup3\n        /* \"#utility.yul\":8938:8956   */\n      add\n        /* \"#utility.yul\":8930:8956   */\n      swap1\n      pop\n        /* \"#utility.yul\":9002:9011   */\n      dup2\n        /* \"#utility.yul\":8996:9000   */\n      dup2\n        /* \"#utility.yul\":8992:9012   */\n      sub\n        /* \"#utility.yul\":8988:8989   */\n      0x00\n        /* \"#utility.yul\":8977:8986   */\n      dup4\n        /* \"#utility.yul\":8973:8990   */\n      add\n        /* \"#utility.yul\":8966:9013   */\n      mstore\n        /* \"#utility.yul\":9030:9161   */\n      tag_263\n        /* \"#utility.yul\":9156:9160   */\n      dup2\n        /* \"#utility.yul\":9030:9161   */\n      tag_131\n      jump\t// in\n    tag_263:\n        /* \"#utility.yul\":9022:9161   */\n      swap1\n      pop\n        /* \"#utility.yul\":8749:9168   */\n      swap2\n      swap1\n      pop\n      jump\t// out\n        /* \"#utility.yul\":9174:9346   */\n    tag_132:\n        /* \"#utility.yul\":9314:9338   */\n      0x5265717565737420646f6573206e6f7420657869737400000000000000000000\n        /* \"#utility.yul\":9310:9311   */\n      0x00\n        /* \"#utility.yul\":9302:9308   */\n      dup3\n        /* \"#utility.yul\":9298:9312   */\n      add\n        /* \"#utility.yul\":9291:9339   */\n      mstore\n        /* \"#utility.yul\":9174:9346   */\n      pop\n      jump\t// out\n        /* \"#utility.yul\":9352:9718   */\n    tag_133:\n        /* \"#utility.yul\":9494:9497   */\n      0x00\n        /* \"#utility.yul\":9515:9582   */\n      tag_266\n        /* \"#utility.yul\":9579:9581   */\n      0x16\n        /* \"#utility.yul\":9574:9577   */\n      dup4\n        /* \"#utility.yul\":9515:9582   */\n      tag_112\n      jump\t// in\n    tag_266:\n        /* \"#utility.yul\":9508:9582   */\n      swap2\n      pop\n        /* \"#utility.yul\":9591:9684   */\n      tag_267\n        /* \"#utility.yul\":9680:9683   */\n      dup3\n        /* \"#utility.yul\":9591:9684   */\n      tag_132\n      jump\t// in\n    tag_267:\n        /* \"#utility.yul\":9709:9711   */\n      0x20\n        /* \"#utility.yul\":9704:9707   */\n      dup3\n        /* \"#utility.yul\":9700:9712   */\n      add\n        /* \"#utility.yul\":9693:9712   */\n      swap1\n      pop\n        /* \"#utility.yul\":9352:9718   */\n      swap2\n      swap1\n      pop\n      jump\t// out\n        /* \"#utility.yul\":9724:10143   */\n    tag_57:\n        /* \"#utility.yul\":9890:9894   */\n      0x00\n        /* \"#utility.yul\":9928:9930   */\n      0x20\n        /* \"#utility.yul\":9917:9926   */\n      dup3\n        /* \"#utility.yul\":9913:9931   */\n      add\n        /* \"#utility.yul\":9905:9931   */\n      swap1\n      pop\n        /* \"#utility.yul\":9977:9986   */\n      dup2\n        /* \"#utility.yul\":9971:9975   */\n      dup2\n        /* \"#utility.yul\":9967:9987   */\n      sub\n        /* \"#utility.yul\":9963:9964   */\n      0x00\n        /* \"#utility.yul\":9952:9961   */\n      dup4\n        /* \"#utility.yul\":9948:9965   */\n      add\n        /* \"#utility.yul\":9941:9988   */\n      mstore\n        /* \"#utility.yul\":10005:10136   */\n      tag_269\n        /* \"#utility.yul\":10131:10135   */\n      dup2\n        /* \"#utility.yul\":10005:10136   */\n      tag_133\n      jump\t// in\n    tag_269:\n        /* \"#utility.yul\":9997:10136   */\n      swap1\n      pop\n        /* \"#utility.yul\":9724:10143   */\n      swap2\n      swap1\n      pop\n      jump\t// out\n        /* \"#utility.yul\":10149:10331   */\n    tag_134:\n        /* \"#utility.yul\":10289:10323   */\n      0x74686973207265717565737420697320616c726561647920636f6d706c657465\n        /* \"#utility.yul\":10285:10286   */\n      0x00\n        /* \"#utility.yul\":10277:10283   */\n      dup3\n        /* \"#utility.yul\":10273:10287   */\n      add\n        /* \"#utility.yul\":10266:10324   */\n      mstore\n        /* \"#utility.yul\":10149:10331   */\n      pop\n      jump\t// out\n        /* \"#utility.yul\":10337:10703   */\n    tag_135:\n        /* \"#utility.yul\":10479:10482   */\n      0x00\n        /* \"#utility.yul\":10500:10567   */\n      tag_272\n        /* \"#utility.yul\":10564:10566   */\n      0x20\n        /* \"#utility.yul\":10559:10562   */\n      dup4\n        /* \"#utility.yul\":10500:10567   */\n      tag_112\n      jump\t// in\n    tag_272:\n        /* \"#utility.yul\":10493:10567   */\n      swap2\n      pop\n        /* \"#utility.yul\":10576:10669   */\n      tag_273\n        /* \"#utility.yul\":10665:10668   */\n      dup3\n        /* \"#utility.yul\":10576:10669   */\n      tag_134\n      jump\t// in\n    tag_273:\n        /* \"#utility.yul\":10694:10696   */\n      0x20\n        /* \"#utility.yul\":10689:10692   */\n      dup3\n        /* \"#utility.yul\":10685:10697   */\n      add\n        /* \"#utility.yul\":10678:10697   */\n      swap1\n      pop\n        /* \"#utility.yul\":10337:10703   */\n      swap2\n      swap1\n      pop\n      jump\t// out\n        /* \"#utility.yul\":10709:11128   */\n    tag_60:\n        /* \"#utility.yul\":10875:10879   */\n      0x00\n        /* \"#utility.yul\":10913:10915   */\n      0x20\n        /* \"#utility.yul\":10902:10911   */\n      dup3\n        /* \"#utility.yul\":10898:10916   */\n      add\n        /* \"#utility.yul\":10890:10916   */\n      swap1\n      pop\n        /* \"#utility.yul\":10962:10971   */\n      dup2\n        /* \"#utility.yul\":10956:10960   */\n      dup2\n        /* \"#utility.yul\":10952:10972   */\n      sub\n        /* \"#utility.yul\":10948:10949   */\n      0x00\n        /* \"#utility.yul\":10937:10946   */\n      dup4\n        /* \"#utility.yul\":10933:10950   */\n      add\n        /* \"#utility.yul\":10926:10973   */\n      mstore\n        /* \"#utility.yul\":10990:11121   */\n      tag_275\n        /* \"#utility.yul\":11116:11120   */\n      dup2\n        /* \"#utility.yul\":10990:11121   */\n      tag_135\n      jump\t// in\n    tag_275:\n        /* \"#utility.yul\":10982:11121   */\n      swap1\n      pop\n        /* \"#utility.yul\":10709:11128   */\n      swap2\n      swap1\n      pop\n      jump\t// out\n        /* \"#utility.yul\":11134:11314   */\n    tag_136:\n        /* \"#utility.yul\":11182:11259   */\n      0x4e487b7100000000000000000000000000000000000000000000000000000000\n        /* \"#utility.yul\":11179:11180   */\n      0x00\n        /* \"#utility.yul\":11172:11260   */\n      mstore\n        /* \"#utility.yul\":11279:11283   */\n      0x12\n        /* \"#utility.yul\":11276:11277   */\n      0x04\n        /* \"#utility.yul\":11269:11284   */\n      mstore\n        /* \"#utility.yul\":11303:11307   */\n      0x24\n        /* \"#utility.yul\":11300:11301   */\n      0x00\n        /* \"#utility.yul\":11293:11308   */\n      revert\n        /* \"#utility.yul\":11320:11500   */\n    tag_137:\n        /* \"#utility.yul\":11368:11445   */\n      0x4e487b7100000000000000000000000000000000000000000000000000000000\n        /* \"#utility.yul\":11365:11366   */\n      0x00\n        /* \"#utility.yul\":11358:11446   */\n      mstore\n        /* \"#utility.yul\":11465:11469   */\n      0x11\n        /* \"#utility.yul\":11462:11463   */\n      0x04\n        /* \"#utility.yul\":11455:11470   */\n      mstore\n        /* \"#utility.yul\":11489:11493   */\n      0x24\n        /* \"#utility.yul\":11486:11487   */\n      0x00\n        /* \"#utility.yul\":11479:11494   */\n      revert\n        /* \"#utility.yul\":11506:11691   */\n    tag_62:\n        /* \"#utility.yul\":11546:11547   */\n      0x00\n        /* \"#utility.yul\":11563:11583   */\n      tag_279\n        /* \"#utility.yul\":11581:11582   */\n      dup3\n        /* \"#utility.yul\":11563:11583   */\n      tag_101\n      jump\t// in\n    tag_279:\n        /* \"#utility.yul\":11558:11583   */\n      swap2\n      pop\n        /* \"#utility.yul\":11597:11617   */\n      tag_280\n        /* \"#utility.yul\":11615:11616   */\n      dup4\n        /* \"#utility.yul\":11597:11617   */\n      tag_101\n      jump\t// in\n    tag_280:\n        /* \"#utility.yul\":11592:11617   */\n      swap3\n      pop\n        /* \"#utility.yul\":11636:11637   */\n      dup3\n        /* \"#utility.yul\":11626:11661   */\n      tag_281\n      jumpi\n        /* \"#utility.yul\":11641:11659   */\n      tag_282\n      tag_136\n      jump\t// in\n    tag_282:\n        /* \"#utility.yul\":11626:11661   */\n    tag_281:\n        /* \"#utility.yul\":11683:11684   */\n      dup3\n        /* \"#utility.yul\":11680:11681   */\n      dup3\n        /* \"#utility.yul\":11676:11685   */\n      div\n        /* \"#utility.yul\":11671:11685   */\n      swap1\n      pop\n        /* \"#utility.yul\":11506:11691   */\n      swap3\n      swap2\n      pop\n      pop\n      jump\t// out\n        /* \"#utility.yul\":11697:11928   */\n    tag_138:\n        /* \"#utility.yul\":11837:11871   */\n      0x74686973207265717565737420646f65736e2774206861766520617070726f76\n        /* \"#utility.yul\":11833:11834   */\n      0x00\n        /* \"#utility.yul\":11825:11831   */\n      dup3\n        /* \"#utility.yul\":11821:11835   */\n      add\n        /* \"#utility.yul\":11814:11872   */\n      mstore\n        /* \"#utility.yul\":11906:11920   */\n      0x616572206d616a6f726974790000000000000000000000000000000000000000\n        /* \"#utility.yul\":11901:11903   */\n      0x20\n        /* \"#utility.yul\":11893:11899   */\n      dup3\n        /* \"#utility.yul\":11889:11904   */\n      add\n        /* \"#utility.yul\":11882:11921   */\n      mstore\n        /* \"#utility.yul\":11697:11928   */\n      pop\n      jump\t// out\n        /* \"#utility.yul\":11934:12300   */\n    tag_139:\n        /* \"#utility.yul\":12076:12079   */\n      0x00\n        /* \"#utility.yul\":12097:12164   */\n      tag_285\n        /* \"#utility.yul\":12161:12163   */\n      0x2c\n        /* \"#utility.yul\":12156:12159   */\n      dup4\n        /* \"#utility.yul\":12097:12164   */\n      tag_112\n      jump\t// in\n    tag_285:\n        /* \"#utility.yul\":12090:12164   */\n      swap2\n      pop\n        /* \"#utility.yul\":12173:12266   */\n      tag_286\n        /* \"#utility.yul\":12262:12265   */\n      dup3\n        /* \"#utility.yul\":12173:12266   */\n      tag_138\n      jump\t// in\n    tag_286:\n        /* \"#utility.yul\":12291:12293   */\n      0x40\n        /* \"#utility.yul\":12286:12289   */\n      dup3\n        /* \"#utility.yul\":12282:12294   */\n      add\n        /* \"#utility.yul\":12275:12294   */\n      swap1\n      pop\n        /* \"#utility.yul\":11934:12300   */\n      swap2\n      swap1\n      pop\n      jump\t// out\n        /* \"#utility.yul\":12306:12725   */\n    tag_65:\n        /* \"#utility.yul\":12472:12476   */\n      0x00\n        /* \"#utility.yul\":12510:12512   */\n      0x20\n        /* \"#utility.yul\":12499:12508   */\n      dup3\n        /* \"#utility.yul\":12495:12513   */\n      add\n        /* \"#utility.yul\":12487:12513   */\n      swap1\n      pop\n        /* \"#utility.yul\":12559:12568   */\n      dup2\n        /* \"#utility.yul\":12553:12557   */\n      dup2\n        /* \"#utility.yul\":12549:12569   */\n      sub\n        /* \"#utility.yul\":12545:12546   */\n      0x00\n        /* \"#utility.yul\":12534:12543   */\n      dup4\n        /* \"#utility.yul\":12530:12547   */\n      add\n        /* \"#utility.yul\":12523:12570   */\n      mstore\n        /* \"#utility.yul\":12587:12718   */\n      tag_288\n        /* \"#utility.yul\":12713:12717   */\n      dup2\n        /* \"#utility.yul\":12587:12718   */\n      tag_139\n      jump\t// in\n    tag_288:\n        /* \"#utility.yul\":12579:12718   */\n      swap1\n      pop\n        /* \"#utility.yul\":12306:12725   */\n      swap2\n      swap1\n      pop\n      jump\t// out\n        /* \"#utility.yul\":12731:12911   */\n    tag_140:\n        /* \"#utility.yul\":12779:12856   */\n      0x4e487b7100000000000000000000000000000000000000000000000000000000\n        /* \"#utility.yul\":12776:12777   */\n      0x00\n        /* \"#utility.yul\":12769:12857   */\n      mstore\n        /* \"#utility.yul\":12876:12880   */\n      0x22\n        /* \"#utility.yul\":12873:12874   */\n      0x04\n        /* \"#utility.yul\":12866:12881   */\n      mstore\n        /* \"#utility.yul\":12900:12904   */\n      0x24\n        /* \"#utility.yul\":12897:12898   */\n      0x00\n        /* \"#utility.yul\":12890:12905   */\n      revert\n        /* \"#utility.yul\":12917:13237   */\n    tag_69:\n        /* \"#utility.yul\":12961:12967   */\n      0x00\n        /* \"#utility.yul\":12998:12999   */\n      0x02\n        /* \"#utility.yul\":12992:12996   */\n      dup3\n        /* \"#utility.yul\":12988:13000   */\n      div\n        /* \"#utility.yul\":12978:13000   */\n      swap1\n      pop\n        /* \"#utility.yul\":13045:13046   */\n      0x01\n        /* \"#utility.yul\":13039:13043   */\n      dup3\n        /* \"#utility.yul\":13035:13047   */\n      and\n        /* \"#utility.yul\":13066:13084   */\n      dup1\n        /* \"#utility.yul\":13056:13137   */\n      tag_291\n      jumpi\n        /* \"#utility.yul\":13122:13126   */\n      0x7f\n        /* \"#utility.yul\":13114:13120   */\n      dup3\n        /* \"#utility.yul\":13110:13127   */\n      and\n        /* \"#utility.yul\":13100:13127   */\n      swap2\n      pop\n        /* \"#utility.yul\":13056:13137   */\n    tag_291:\n        /* \"#utility.yul\":13184:13186   */\n      0x20\n        /* \"#utility.yul\":13176:13182   */\n      dup3\n        /* \"#utility.yul\":13173:13187   */\n      lt\n        /* \"#utility.yul\":13153:13171   */\n      dup2\n        /* \"#utility.yul\":13150:13188   */\n      sub\n        /* \"#utility.yul\":13147:13231   */\n      tag_292\n      jumpi\n        /* \"#utility.yul\":13203:13221   */\n      tag_293\n      tag_140\n      jump\t// in\n    tag_293:\n        /* \"#utility.yul\":13147:13231   */\n    tag_292:\n        /* \"#utility.yul\":12968:13237   */\n      pop\n        /* \"#utility.yul\":12917:13237   */\n      swap2\n      swap1\n      pop\n      jump\t// out\n        /* \"#utility.yul\":13243:13384   */\n    tag_141:\n        /* \"#utility.yul\":13292:13296   */\n      0x00\n        /* \"#utility.yul\":13315:13318   */\n      dup2\n        /* \"#utility.yul\":13307:13318   */\n      swap1\n      pop\n        /* \"#utility.yul\":13338:13341   */\n      dup2\n        /* \"#utility.yul\":13335:13336   */\n      0x00\n        /* \"#utility.yul\":13328:13342   */\n      mstore\n        /* \"#utility.yul\":13372:13376   */\n      0x20\n        /* \"#utility.yul\":13369:13370   */\n      0x00\n        /* \"#utility.yul\":13359:13377   */\n      keccak256\n        /* \"#utility.yul\":13351:13377   */\n      swap1\n      pop\n        /* \"#utility.yul\":13243:13384   */\n      swap2\n      swap1\n      pop\n      jump\t// out\n        /* \"#utility.yul\":13390:13483   */\n    tag_142:\n        /* \"#utility.yul\":13427:13433   */\n      0x00\n        /* \"#utility.yul\":13474:13476   */\n      0x20\n        /* \"#utility.yul\":13469:13471   */\n      0x1f\n        /* \"#utility.yul\":13462:13467   */\n      dup4\n        /* \"#utility.yul\":13458:13472   */\n      add\n        /* \"#utility.yul\":13454:13477   */\n      div\n        /* \"#utility.yul\":13444:13477   */\n      swap1\n      pop\n        /* \"#utility.yul\":13390:13483   */\n      swap2\n      swap1\n      pop\n      jump\t// out\n        /* \"#utility.yul\":13489:13596   */\n    tag_143:\n        /* \"#utility.yul\":13533:13541   */\n      0x00\n        /* \"#utility.yul\":13583:13588   */\n      dup3\n        /* \"#utility.yul\":13577:13581   */\n      dup3\n        /* \"#utility.yul\":13573:13589   */\n      shl\n        /* \"#utility.yul\":13552:13589   */\n      swap1\n      pop\n        /* \"#utility.yul\":13489:13596   */\n      swap3\n      swap2\n      pop\n      pop\n      jump\t// out\n        /* \"#utility.yul\":13602:13995   */\n    tag_144:\n        /* \"#utility.yul\":13671:13677   */\n      0x00\n        /* \"#utility.yul\":13721:13722   */\n      0x08\n        /* \"#utility.yul\":13709:13719   */\n      dup4\n        /* \"#utility.yul\":13705:13723   */\n      mul\n        /* \"#utility.yul\":13744:13841   */\n      tag_298\n        /* \"#utility.yul\":13774:13840   */\n      0xffffffffffffffffffffffffffffffffffffffffffffffffffffffffffffffff\n        /* \"#utility.yul\":13763:13772   */\n      dup3\n        /* \"#utility.yul\":13744:13841   */\n      tag_143\n      jump\t// in\n    tag_298:\n        /* \"#utility.yul\":13862:13901   */\n      tag_299\n        /* \"#utility.yul\":13892:13900   */\n      dup7\n        /* \"#utility.yul\":13881:13890   */\n      dup4\n        /* \"#utility.yul\":13862:13901   */\n      tag_143\n      jump\t// in\n    tag_299:\n        /* \"#utility.yul\":13850:13901   */\n      swap6\n      pop\n        /* \"#utility.yul\":13934:13938   */\n      dup1\n        /* \"#utility.yul\":13930:13939   */\n      not\n        /* \"#utility.yul\":13923:13928   */\n      dup5\n        /* \"#utility.yul\":13919:13940   */\n      and\n        /* \"#utility.yul\":13910:13940   */\n      swap4\n      pop\n        /* \"#utility.yul\":13983:13987   */\n      dup1\n        /* \"#utility.yul\":13973:13981   */\n      dup7\n        /* \"#utility.yul\":13969:13988   */\n      and\n        /* \"#utility.yul\":13962:13967   */\n      dup5\n        /* \"#utility.yul\":13959:13989   */\n      or\n        /* \"#utility.yul\":13949:13989   */\n      swap3\n      pop\n        /* \"#utility.yul\":13678:13995   */\n      pop\n      pop\n        /* \"#utility.yul\":13602:13995   */\n      swap4\n      swap3\n      pop\n      pop\n      pop\n      jump\t// out\n        /* \"#utility.yul\":14001:14061   */\n    tag_145:\n        /* \"#utility.yul\":14029:14032   */\n      0x00\n        /* \"#utility.yul\":14050:14055   */\n      dup2\n        /* \"#utility.yul\":14043:14055   */\n      swap1\n      pop\n        /* \"#utility.yul\":14001:14061   */\n      swap2\n      swap1\n      pop\n      jump\t// out\n        /* \"#utility.yul\":14067:14209   */\n    tag_146:\n        /* \"#utility.yul\":14117:14126   */\n      0x00\n        /* \"#utility.yul\":14150:14203   */\n      tag_302\n        /* \"#utility.yul\":14168:14202   */\n      tag_303\n        /* \"#utility.yul\":14177:14201   */\n      tag_304\n        /* \"#utility.yul\":14195:14200   */\n      dup5\n        /* \"#utility.yul\":14177:14201   */\n      tag_101\n      jump\t// in\n    tag_304:\n        /* \"#utility.yul\":14168:14202   */\n      tag_145\n      jump\t// in\n    tag_303:\n        /* \"#utility.yul\":14150:14203   */\n      tag_101\n      jump\t// in\n    tag_302:\n        /* \"#utility.yul\":14137:14203   */\n      swap1\n      pop\n        /* \"#utility.yul\":14067:14209   */\n      swap2\n      swap1\n      pop\n      jump\t// out\n        /* \"#utility.yul\":14215:14290   */\n    tag_147:\n        /* \"#utility.yul\":14258:14261   */\n      0x00\n        /* \"#utility.yul\":14279:14284   */\n      dup2\n        /* \"#utility.yul\":14272:14284   */\n      swap1\n      pop\n        /* \"#utility.yul\":14215:14290   */\n      swap2\n      swap1\n      pop\n      jump\t// out\n        /* \"#utility.yul\":14296:14565   */\n    tag_148:\n        /* \"#utility.yul\":14406:14445   */\n      tag_307\n        /* \"#utility.yul\":14437:14444   */\n      dup4\n        /* \"#utility.yul\":14406:14445   */\n      tag_146\n      jump\t// in\n    tag_307:\n        /* \"#utility.yul\":14467:14558   */\n      tag_308\n        /* \"#utility.yul\":14516:14557   */\n      tag_309\n        /* \"#utility.yul\":14540:14556   */\n      dup3\n        /* \"#utility.yul\":14516:14557   */\n      tag_147\n      jump\t// in\n    tag_309:\n        /* \"#utility.yul\":14508:14514   */\n      dup5\n        /* \"#utility.yul\":14501:14505   */\n      dup5\n        /* \"#utility.yul\":14495:14506   */\n      sload\n        /* \"#utility.yul\":14467:14558   */\n      tag_144\n      jump\t// in\n    tag_308:\n        /* \"#utility.yul\":14461:14465   */\n      dup3\n        /* \"#utility.yul\":14454:14559   */\n      sstore\n        /* \"#utility.yul\":14372:14565   */\n      pop\n        /* \"#utility.yul\":14296:14565   */\n      pop\n      pop\n      pop\n      jump\t// out\n        /* \"#utility.yul\":14571:14644   */\n    tag_149:\n        /* \"#utility.yul\":14616:14619   */\n      0x00\n        /* \"#utility.yul\":14637:14638   */\n      0x00\n        /* \"#utility.yul\":14630:14638   */\n      swap1\n      pop\n        /* \"#utility.yul\":14571:14644   */\n      swap1\n      jump\t// out\n        /* \"#utility.yul\":14650:14839   */\n    tag_150:\n        /* \"#utility.yul\":14727:14759   */\n      tag_312\n      tag_149\n      jump\t// in\n    tag_312:\n        /* \"#utility.yul\":14768:14833   */\n      tag_313\n        /* \"#utility.yul\":14826:14832   */\n      dup2\n        /* \"#utility.yul\":14818:14824   */\n      dup5\n        /* \"#utility.yul\":14812:14816   */\n      dup5\n        /* \"#utility.yul\":14768:14833   */\n      tag_148\n      jump\t// in\n    tag_313:\n        /* \"#utility.yul\":14703:14839   */\n      pop\n        /* \"#utility.yul\":14650:14839   */\n      pop\n      pop\n      jump\t// out\n        /* \"#utility.yul\":14845:15031   */\n    tag_151:\n        /* \"#utility.yul\":14905:15025   */\n    tag_315:\n        /* \"#utility.yul\":14922:14925   */\n      dup2\n        /* \"#utility.yul\":14915:14920   */\n      dup2\n        /* \"#utility.yul\":14912:14926   */\n      lt\n        /* \"#utility.yul\":14905:15025   */\n      iszero\n      tag_317\n      jumpi\n        /* \"#utility.yul\":14976:15015   */\n      tag_318\n        /* \"#utility.yul\":15013:15014   */\n      0x00\n        /* \"#utility.yul\":15006:15011   */\n      dup3\n        /* \"#utility.yul\":14976:15015   */\n      tag_150\n      jump\t// in\n    tag_318:\n        /* \"#utility.yul\":14949:14950   */\n      0x01\n        /* \"#utility.yul\":14942:14947   */\n      dup2\n        /* \"#utility.yul\":14938:14951   */\n      add\n        /* \"#utility.yul\":14929:14951   */\n      swap1\n      pop\n        /* \"#utility.yul\":14905:15025   */\n      jump(tag_315)\n    tag_317:\n        /* \"#utility.yul\":14845:15031   */\n      pop\n      pop\n      jump\t// out\n        /* \"#utility.yul\":15037:15580   */\n    tag_152:\n        /* \"#utility.yul\":15138:15140   */\n      0x1f\n        /* \"#utility.yul\":15133:15136   */\n      dup3\n        /* \"#utility.yul\":15130:15141   */\n      gt\n        /* \"#utility.yul\":15127:15573   */\n      iszero\n      tag_320\n      jumpi\n        /* \"#utility.yul\":15172:15210   */\n      tag_321\n        /* \"#utility.yul\":15204:15209   */\n      dup2\n        /* \"#utility.yul\":15172:15210   */\n      tag_141\n      jump\t// in\n    tag_321:\n        /* \"#utility.yul\":15256:15285   */\n      tag_322\n        /* \"#utility.yul\":15274:15284   */\n      dup5\n        /* \"#utility.yul\":15256:15285   */\n      tag_142\n      jump\t// in\n    tag_322:\n        /* \"#utility.yul\":15246:15254   */\n      dup2\n        /* \"#utility.yul\":15242:15286   */\n      add\n        /* \"#utility.yul\":15439:15441   */\n      0x20\n        /* \"#utility.yul\":15427:15437   */\n      dup6\n        /* \"#utility.yul\":15424:15442   */\n      lt\n        /* \"#utility.yul\":15421:15470   */\n      iszero\n      tag_323\n      jumpi\n        /* \"#utility.yul\":15460:15468   */\n      dup2\n        /* \"#utility.yul\":15445:15468   */\n      swap1\n      pop\n        /* \"#utility.yul\":15421:15470   */\n    tag_323:\n        /* \"#utility.yul\":15483:15563   */\n      tag_324\n        /* \"#utility.yul\":15539:15561   */\n      tag_325\n        /* \"#utility.yul\":15557:15560   */\n      dup6\n        /* \"#utility.yul\":15539:15561   */\n      tag_142\n      jump\t// in\n    tag_325:\n        /* \"#utility.yul\":15529:15537   */\n      dup4\n        /* \"#utility.yul\":15525:15562   */\n      add\n        /* \"#utility.yul\":15512:15523   */\n      dup3\n        /* \"#utility.yul\":15483:15563   */\n      tag_151\n      jump\t// in\n    tag_324:\n        /* \"#utility.yul\":15142:15573   */\n      pop\n      pop\n        /* \"#utility.yul\":15127:15573   */\n    tag_320:\n        /* \"#utility.yul\":15037:15580   */\n      pop\n      pop\n      pop\n      jump\t// out\n        /* \"#utility.yul\":15586:15703   */\n    tag_153:\n        /* \"#utility.yul\":15640:15648   */\n      0x00\n        /* \"#utility.yul\":15690:15695   */\n      dup3\n        /* \"#utility.yul\":15684:15688   */\n      dup3\n        /* \"#utility.yul\":15680:15696   */\n      shr\n        /* \"#utility.yul\":15659:15696   */\n      swap1\n      pop\n        /* \"#utility.yul\":15586:15703   */\n      swap3\n      swap2\n      pop\n      pop\n      jump\t// out\n        /* \"#utility.yul\":15709:15878   */\n    tag_154:\n        /* \"#utility.yul\":15753:15759   */\n      0x00\n        /* \"#utility.yul\":15786:15837   */\n      tag_328\n        /* \"#utility.yul\":15834:15835   */\n      0x00\n        /* \"#utility.yul\":15830:15836   */\n      not\n        /* \"#utility.yul\":15822:15827   */\n      dup5\n        /* \"#utility.yul\":15819:15820   */\n      0x08\n        /* \"#utility.yul\":15815:15828   */\n      mul\n        /* \"#utility.yul\":15786:15837   */\n      tag_153\n      jump\t// in\n    tag_328:\n        /* \"#utility.yul\":15782:15838   */\n      not\n        /* \"#utility.yul\":15867:15871   */\n      dup1\n        /* \"#utility.yul\":15861:15865   */\n      dup4\n        /* \"#utility.yul\":15857:15872   */\n      and\n        /* \"#utility.yul\":15847:15872   */\n      swap2\n      pop\n        /* \"#utility.yul\":15760:15878   */\n      pop\n        /* \"#utility.yul\":15709:15878   */\n      swap3\n      swap2\n      pop\n      pop\n      jump\t// out\n        /* \"#utility.yul\":15883:16178   */\n    tag_155:\n        /* \"#utility.yul\":15959:15963   */\n      0x00\n        /* \"#utility.yul\":16105:16134   */\n      tag_330\n        /* \"#utility.yul\":16130:16133   */\n      dup4\n        /* \"#utility.yul\":16124:16128   */\n      dup4\n        /* \"#utility.yul\":16105:16134   */\n      tag_154\n      jump\t// in\n    tag_330:\n        /* \"#utility.yul\":16097:16134   */\n      swap2\n      pop\n        /* \"#utility.yul\":16167:16170   */\n      dup3\n        /* \"#utility.yul\":16164:16165   */\n      0x02\n        /* \"#utility.yul\":16160:16171   */\n      mul\n        /* \"#utility.yul\":16154:16158   */\n      dup3\n        /* \"#utility.yul\":16151:16172   */\n      or\n        /* \"#utility.yul\":16143:16172   */\n      swap1\n      pop\n        /* \"#utility.yul\":15883:16178   */\n      swap3\n      swap2\n      pop\n      pop\n      jump\t// out\n        /* \"#utility.yul\":16183:17578   */\n    tag_79:\n        /* \"#utility.yul\":16300:16337   */\n      tag_332\n        /* \"#utility.yul\":16333:16336   */\n      dup3\n        /* \"#utility.yul\":16300:16337   */\n      tag_111\n      jump\t// in\n    tag_332:\n        /* \"#utility.yul\":16402:16420   */\n      0xffffffffffffffff\n        /* \"#utility.yul\":16394:16400   */\n      dup2\n        /* \"#utility.yul\":16391:16421   */\n      gt\n        /* \"#utility.yul\":16388:16444   */\n      iszero\n      tag_333\n      jumpi\n        /* \"#utility.yul\":16424:16442   */\n      tag_334\n      tag_121\n      jump\t// in\n    tag_334:\n        /* \"#utility.yul\":16388:16444   */\n    tag_333:\n        /* \"#utility.yul\":16468:16506   */\n      tag_335\n        /* \"#utility.yul\":16500:16504   */\n      dup3\n        /* \"#utility.yul\":16494:16505   */\n      sload\n        /* \"#utility.yul\":16468:16506   */\n      tag_69\n      jump\t// in\n    tag_335:\n        /* \"#utility.yul\":16553:16620   */\n      tag_336\n        /* \"#utility.yul\":16613:16619   */\n      dup3\n        /* \"#utility.yul\":16605:16611   */\n      dup3\n        /* \"#utility.yul\":16599:16603   */\n      dup6\n        /* \"#utility.yul\":16553:16620   */\n      tag_152\n      jump\t// in\n    tag_336:\n        /* \"#utility.yul\":16647:16648   */\n      0x00\n        /* \"#utility.yul\":16671:16675   */\n      0x20\n        /* \"#utility.yul\":16658:16675   */\n      swap1\n      pop\n        /* \"#utility.yul\":16703:16705   */\n      0x1f\n        /* \"#utility.yul\":16695:16701   */\n      dup4\n        /* \"#utility.yul\":16692:16706   */\n      gt\n        /* \"#utility.yul\":16720:16721   */\n      0x01\n        /* \"#utility.yul\":16715:17333   */\n      dup2\n      eq\n      tag_338\n      jumpi\n        /* \"#utility.yul\":17377:17378   */\n      0x00\n        /* \"#utility.yul\":17394:17400   */\n      dup5\n        /* \"#utility.yul\":17391:17468   */\n      iszero\n      tag_339\n      jumpi\n        /* \"#utility.yul\":17443:17452   */\n      dup3\n        /* \"#utility.yul\":17438:17441   */\n      dup8\n        /* \"#utility.yul\":17434:17453   */\n      add\n        /* \"#utility.yul\":17428:17454   */\n      mload\n        /* \"#utility.yul\":17419:17454   */\n      swap1\n      pop\n        /* \"#utility.yul\":17391:17468   */\n    tag_339:\n        /* \"#utility.yul\":17494:17561   */\n      tag_340\n        /* \"#utility.yul\":17554:17560   */\n      dup6\n        /* \"#utility.yul\":17547:17552   */\n      dup3\n        /* \"#utility.yul\":17494:17561   */\n      tag_155\n      jump\t// in\n    tag_340:\n        /* \"#utility.yul\":17488:17492   */\n      dup7\n        /* \"#utility.yul\":17481:17562   */\n      sstore\n        /* \"#utility.yul\":17350:17572   */\n      pop\n        /* \"#utility.yul\":16685:17572   */\n      jump(tag_337)\n        /* \"#utility.yul\":16715:17333   */\n    tag_338:\n        /* \"#utility.yul\":16767:16771   */\n      0x1f\n        /* \"#utility.yul\":16763:16772   */\n      not\n        /* \"#utility.yul\":16755:16761   */\n      dup5\n        /* \"#utility.yul\":16751:16773   */\n      and\n        /* \"#utility.yul\":16801:16838   */\n      tag_341\n        /* \"#utility.yul\":16833:16837   */\n      dup7\n        /* \"#utility.yul\":16801:16838   */\n      tag_141\n      jump\t// in\n    tag_341:\n        /* \"#utility.yul\":16860:16861   */\n      0x00\n        /* \"#utility.yul\":16874:17082   */\n    tag_342:\n        /* \"#utility.yul\":16888:16895   */\n      dup3\n        /* \"#utility.yul\":16885:16886   */\n      dup2\n        /* \"#utility.yul\":16882:16896   */\n      lt\n        /* \"#utility.yul\":16874:17082   */\n      iszero\n      tag_344\n      jumpi\n        /* \"#utility.yul\":16967:16976   */\n      dup5\n        /* \"#utility.yul\":16962:16965   */\n      dup10\n        /* \"#utility.yul\":16958:16977   */\n      add\n        /* \"#utility.yul\":16952:16978   */\n      mload\n        /* \"#utility.yul\":16944:16950   */\n      dup3\n        /* \"#utility.yul\":16937:16979   */\n      sstore\n        /* \"#utility.yul\":17018:17019   */\n      0x01\n        /* \"#utility.yul\":17010:17016   */\n      dup3\n        /* \"#utility.yul\":17006:17020   */\n      add\n        /* \"#utility.yul\":16996:17020   */\n      swap2\n      pop\n        /* \"#utility.yul\":17065:17067   */\n      0x20\n        /* \"#utility.yul\":17054:17063   */\n      dup6\n        /* \"#utility.yul\":17050:17068   */\n      add\n        /* \"#utility.yul\":17037:17068   */\n      swap5\n      pop\n        /* \"#utility.yul\":16911:16915   */\n      0x20\n        /* \"#utility.yul\":16908:16909   */\n      dup2\n        /* \"#utility.yul\":16904:16916   */\n      add\n        /* \"#utility.yul\":16899:16916   */\n      swap1\n      pop\n        /* \"#utility.yul\":16874:17082   */\n      jump(tag_342)\n    tag_344:\n        /* \"#utility.yul\":17110:17116   */\n      dup7\n        /* \"#utility.yul\":17101:17108   */\n      dup4\n        /* \"#utility.yul\":17098:17117   */\n      lt\n        /* \"#utility.yul\":17095:17274   */\n      iszero\n      tag_345\n      jumpi\n        /* \"#utility.yul\":17168:17177   */\n      dup5\n        /* \"#utility.yul\":17163:17166   */\n      dup10\n        /* \"#utility.yul\":17159:17178   */\n      add\n        /* \"#utility.yul\":17153:17179   */\n      mload\n        /* \"#utility.yul\":17211:17259   */\n      tag_346\n        /* \"#utility.yul\":17253:17257   */\n      0x1f\n        /* \"#utility.yul\":17245:17251   */\n      dup10\n        /* \"#utility.yul\":17241:17258   */\n      and\n        /* \"#utility.yul\":17230:17239   */\n      dup3\n        /* \"#utility.yul\":17211:17259   */\n      tag_154\n      jump\t// in\n    tag_346:\n        /* \"#utility.yul\":17203:17209   */\n      dup4\n        /* \"#utility.yul\":17196:17260   */\n      sstore\n        /* \"#utility.yul\":17118:17274   */\n      pop\n        /* \"#utility.yul\":17095:17274   */\n    tag_345:\n        /* \"#utility.yul\":17320:17321   */\n      0x01\n        /* \"#utility.yul\":17316:17317   */\n      0x02\n        /* \"#utility.yul\":17308:17314   */\n      dup9\n        /* \"#utility.yul\":17304:17318   */\n      mul\n        /* \"#utility.yul\":17300:17322   */\n      add\n        /* \"#utility.yul\":17294:17298   */\n      dup9\n        /* \"#utility.yul\":17287:17323   */\n      sstore\n        /* \"#utility.yul\":16722:17333   */\n      pop\n      pop\n      pop\n        /* \"#utility.yul\":16685:17572   */\n    tag_337:\n      pop\n        /* \"#utility.yul\":16275:17578   */\n      pop\n      pop\n      pop\n        /* \"#utility.yul\":16183:17578   */\n      pop\n      pop\n      jump\t// out\n        /* \"#utility.yul\":17584:17817   */\n    tag_81:\n        /* \"#utility.yul\":17623:17626   */\n      0x00\n        /* \"#utility.yul\":17646:17670   */\n      tag_348\n        /* \"#utility.yul\":17664:17669   */\n      dup3\n        /* \"#utility.yul\":17646:17670   */\n      tag_101\n      jump\t// in\n    tag_348:\n        /* \"#utility.yul\":17637:17670   */\n      swap2\n      pop\n        /* \"#utility.yul\":17692:17758   */\n      0xffffffffffffffffffffffffffffffffffffffffffffffffffffffffffffffff\n        /* \"#utility.yul\":17685:17690   */\n      dup3\n        /* \"#utility.yul\":17682:17759   */\n      sub\n        /* \"#utility.yul\":17679:17782   */\n      tag_349\n      jumpi\n        /* \"#utility.yul\":17762:17780   */\n      tag_350\n      tag_137\n      jump\t// in\n    tag_350:\n        /* \"#utility.yul\":17679:17782   */\n    tag_349:\n        /* \"#utility.yul\":17809:17810   */\n      0x01\n        /* \"#utility.yul\":17802:17807   */\n      dup3\n        /* \"#utility.yul\":17798:17811   */\n      add\n        /* \"#utility.yul\":17791:17811   */\n      swap1\n      pop\n        /* \"#utility.yul\":17584:17817   */\n      swap2\n      swap1\n      pop\n      jump\t// out\n        /* \"#utility.yul\":17823:18060   */\n    tag_156:\n        /* \"#utility.yul\":17963:17997   */\n      0x636f6e747269627574696f6e206d7573742062652067726561746572206f7220\n        /* \"#utility.yul\":17959:17960   */\n      0x00\n        /* \"#utility.yul\":17951:17957   */\n      dup3\n        /* \"#utility.yul\":17947:17961   */\n      add\n        /* \"#utility.yul\":17940:17998   */\n      mstore\n        /* \"#utility.yul\":18032:18052   */\n      0x657175616c207468616e206d696e696d756d0000000000000000000000000000\n        /* \"#utility.yul\":18027:18029   */\n      0x20\n        /* \"#utility.yul\":18019:18025   */\n      dup3\n        /* \"#utility.yul\":18015:18030   */\n      add\n        /* \"#utility.yul\":18008:18053   */\n      mstore\n        /* \"#utility.yul\":17823:18060   */\n      pop\n      jump\t// out\n        /* \"#utility.yul\":18066:18432   */\n    tag_157:\n        /* \"#utility.yul\":18208:18211   */\n      0x00\n        /* \"#utility.yul\":18229:18296   */\n      tag_353\n        /* \"#utility.yul\":18293:18295   */\n      0x32\n        /* \"#utility.yul\":18288:18291   */\n      dup4\n        /* \"#utility.yul\":18229:18296   */\n      tag_112\n      jump\t// in\n    tag_353:\n        /* \"#utility.yul\":18222:18296   */\n      swap2\n      pop\n        /* \"#utility.yul\":18305:18398   */\n      tag_354\n        /* \"#utility.yul\":18394:18397   */\n      dup3\n        /* \"#utility.yul\":18305:18398   */\n      tag_156\n      jump\t// in\n    tag_354:\n        /* \"#utility.yul\":18423:18425   */\n      0x40\n        /* \"#utility.yul\":18418:18421   */\n      dup3\n        /* \"#utility.yul\":18414:18426   */\n      add\n        /* \"#utility.yul\":18407:18426   */\n      swap1\n      pop\n        /* \"#utility.yul\":18066:18432   */\n      swap2\n      swap1\n      pop\n      jump\t// out\n        /* \"#utility.yul\":18438:18857   */\n    tag_85:\n        /* \"#utility.yul\":18604:18608   */\n      0x00\n        /* \"#utility.yul\":18642:18644   */\n      0x20\n        /* \"#utility.yul\":18631:18640   */\n      dup3\n        /* \"#utility.yul\":18627:18645   */\n      add\n        /* \"#utility.yul\":18619:18645   */\n      swap1\n      pop\n        /* \"#utility.yul\":18691:18700   */\n      dup2\n        /* \"#utility.yul\":18685:18689   */\n      dup2\n        /* \"#utility.yul\":18681:18701   */\n      sub\n        /* \"#utility.yul\":18677:18678   */\n      0x00\n        /* \"#utility.yul\":18666:18675   */\n      dup4\n        /* \"#utility.yul\":18662:18679   */\n      add\n        /* \"#utility.yul\":18655:18702   */\n      mstore\n        /* \"#utility.yul\":18719:18850   */\n      tag_356\n        /* \"#utility.yul\":18845:18849   */\n      dup2\n        /* \"#utility.yul\":18719:18850   */\n      tag_157\n      jump\t// in\n    tag_356:\n        /* \"#utility.yul\":18711:18850   */\n      swap1\n      pop\n        /* \"#utility.yul\":18438:18857   */\n      swap2\n      swap1\n      pop\n      jump\t// out\n        /* \"#utility.yul\":18863:19087   */\n    tag_158:\n        /* \"#utility.yul\":19003:19037   */\n      0x746869732066756e6374696f6e20697320636f6e7472696275746f724f6e6c79\n        /* \"#utility.yul\":18999:19000   */\n      0x00\n        /* \"#utility.yul\":18991:18997   */\n      dup3\n        /* \"#utility.yul\":18987:19001   */\n      add\n        /* \"#utility.yul\":18980:19038   */\n      mstore\n        /* \"#utility.yul\":19072:19079   */\n      0x2d6f6e6c79000000000000000000000000000000000000000000000000000000\n        /* \"#utility.yul\":19067:19069   */\n      0x20\n        /* \"#utility.yul\":19059:19065   */\n      dup3\n        /* \"#utility.yul\":19055:19070   */\n      add\n        /* \"#utility.yul\":19048:19080   */\n      mstore\n        /* \"#utility.yul\":18863:19087   */\n      pop\n      jump\t// out\n        /* \"#utility.yul\":19093:19459   */\n    tag_159:\n        /* \"#utility.yul\":19235:19238   */\n      0x00\n        /* \"#utility.yul\":19256:19323   */\n      tag_359\n        /* \"#utility.yul\":19320:19322   */\n      0x25\n        /* \"#utility.yul\":19315:19318   */\n      dup4\n        /* \"#utility.yul\":19256:19323   */\n      tag_112\n      jump\t// in\n    tag_359:\n        /* \"#utility.yul\":19249:19323   */\n      swap2\n      pop\n        /* \"#utility.yul\":19332:19425   */\n      tag_360\n        /* \"#utility.yul\":19421:19424   */\n      dup3\n        /* \"#utility.yul\":19332:19425   */\n      tag_158\n      jump\t// in\n    tag_360:\n        /* \"#utility.yul\":19450:19452   */\n      0x40\n        /* \"#utility.yul\":19445:19448   */\n      dup3\n        /* \"#utility.yul\":19441:19453   */\n      add\n        /* \"#utility.yul\":19434:19453   */\n      swap1\n      pop\n        /* \"#utility.yul\":19093:19459   */\n      swap2\n      swap1\n      pop\n      jump\t// out\n        /* \"#utility.yul\":19465:19884   */\n    tag_90:\n        /* \"#utility.yul\":19631:19635   */\n      0x00\n        /* \"#utility.yul\":19669:19671   */\n      0x20\n        /* \"#utility.yul\":19658:19667   */\n      dup3\n        /* \"#utility.yul\":19654:19672   */\n      add\n        /* \"#utility.yul\":19646:19672   */\n      swap1\n      pop\n        /* \"#utility.yul\":19718:19727   */\n      dup2\n        /* \"#utility.yul\":19712:19716   */\n      dup2\n        /* \"#utility.yul\":19708:19728   */\n      sub\n        /* \"#utility.yul\":19704:19705   */\n      0x00\n        /* \"#utility.yul\":19693:19702   */\n      dup4\n        /* \"#utility.yul\":19689:19706   */\n      add\n        /* \"#utility.yul\":19682:19729   */\n      mstore\n        /* \"#utility.yul\":19746:19877   */\n      tag_362\n        /* \"#utility.yul\":19872:19876   */\n      dup2\n        /* \"#utility.yul\":19746:19877   */\n      tag_159\n      jump\t// in\n    tag_362:\n        /* \"#utility.yul\":19738:19877   */\n      swap1\n      pop\n        /* \"#utility.yul\":19465:19884   */\n      swap2\n      swap1\n      pop\n      jump\t// out\n        /* \"#utility.yul\":19890:20114   */\n    tag_160:\n        /* \"#utility.yul\":20030:20064   */\n      0x796f75206861766520616c726561647920617070726f76656420746865207265\n        /* \"#utility.yul\":20026:20027   */\n      0x00\n        /* \"#utility.yul\":20018:20024   */\n      dup3\n        /* \"#utility.yul\":20014:20028   */\n      add\n        /* \"#utility.yul\":20007:20065   */\n      mstore\n        /* \"#utility.yul\":20099:20106   */\n      0x7175657374000000000000000000000000000000000000000000000000000000\n        /* \"#utility.yul\":20094:20096   */\n      0x20\n        /* \"#utility.yul\":20086:20092   */\n      dup3\n        /* \"#utility.yul\":20082:20097   */\n      add\n        /* \"#utility.yul\":20075:20107   */\n      mstore\n        /* \"#utility.yul\":19890:20114   */\n      pop\n      jump\t// out\n        /* \"#utility.yul\":20120:20486   */\n    tag_161:\n        /* \"#utility.yul\":20262:20265   */\n      0x00\n        /* \"#utility.yul\":20283:20350   */\n      tag_365\n        /* \"#utility.yul\":20347:20349   */\n      0x25\n        /* \"#utility.yul\":20342:20345   */\n      dup4\n        /* \"#utility.yul\":20283:20350   */\n      tag_112\n      jump\t// in\n    tag_365:\n        /* \"#utility.yul\":20276:20350   */\n      swap2\n      pop\n        /* \"#utility.yul\":20359:20452   */\n      tag_366\n        /* \"#utility.yul\":20448:20451   */\n      dup3\n        /* \"#utility.yul\":20359:20452   */\n      tag_160\n      jump\t// in\n    tag_366:\n        /* \"#utility.yul\":20477:20479   */\n      0x40\n        /* \"#utility.yul\":20472:20475   */\n      dup3\n        /* \"#utility.yul\":20468:20480   */\n      add\n        /* \"#utility.yul\":20461:20480   */\n      swap1\n      pop\n        /* \"#utility.yul\":20120:20486   */\n      swap2\n      swap1\n      pop\n      jump\t// out\n        /* \"#utility.yul\":20492:20911   */\n    tag_96:\n        /* \"#utility.yul\":20658:20662   */\n      0x00\n        /* \"#utility.yul\":20696:20698   */\n      0x20\n        /* \"#utility.yul\":20685:20694   */\n      dup3\n        /* \"#utility.yul\":20681:20699   */\n      add\n        /* \"#utility.yul\":20673:20699   */\n      swap1\n      pop\n        /* \"#utility.yul\":20745:20754   */\n      dup2\n        /* \"#utility.yul\":20739:20743   */\n      dup2\n        /* \"#utility.yul\":20735:20755   */\n      sub\n        /* \"#utility.yul\":20731:20732   */\n      0x00\n        /* \"#utility.yul\":20720:20729   */\n      dup4\n        /* \"#utility.yul\":20716:20733   */\n      add\n        /* \"#utility.yul\":20709:20756   */\n      mstore\n        /* \"#utility.yul\":20773:20904   */\n      tag_368\n        /* \"#utility.yul\":20899:20903   */\n      dup2\n        /* \"#utility.yul\":20773:20904   */\n      tag_161\n      jump\t// in\n    tag_368:\n        /* \"#utility.yul\":20765:20904   */\n      swap1\n      pop\n        /* \"#utility.yul\":20492:20911   */\n      swap2\n      swap1\n      pop\n      jump\t// out\n\n    auxdata: 0xa26469706673582212209304c275708bfa1f5c50c9487dc6bc3113d1419695bca203ad1761f871debf7864736f6c634300081c0033\n}\n",
    "bytecode": {
      "linkReferences": {},
      "object": "608060405234801561000f575f5ffd5b506040516115ae3803806115ae83398181016040528101906100319190610117565b8060035f6101000a81548173ffffffffffffffffffffffffffffffffffffffff021916908373ffffffffffffffffffffffffffffffffffffffff1602179055508160048190555060015f819055505050610155565b5f5ffd5b5f819050919050565b61009c8161008a565b81146100a6575f5ffd5b50565b5f815190506100b781610093565b92915050565b5f73ffffffffffffffffffffffffffffffffffffffff82169050919050565b5f6100e6826100bd565b9050919050565b6100f6816100dc565b8114610100575f5ffd5b50565b5f81519050610111816100ed565b92915050565b5f5f6040838503121561012d5761012c610086565b5b5f61013a858286016100a9565b925050602061014b85828601610103565b9150509250929050565b61144c806101625f395ff3fe60806040526004361061007a575f3560e01c80638a9cfd551161004d5780638a9cfd551461014c578063937e09b114610174578063d7bb99ba1461019e578063d7d1bbdb146101a85761007a565b8063034410061461007e5780630a144391146100a6578063481c6a75146100e257806381d12c581461010c575b5f5ffd5b348015610089575f5ffd5b506100a4600480360381019061009f919061092c565b6101d0565b005b3480156100b1575f5ffd5b506100cc60048036038101906100c791906109b1565b6103e8565b6040516100d991906109f6565b60405180910390f35b3480156100ed575f5ffd5b506100f6610405565b6040516101039190610a1e565b60405180910390f35b348015610117575f5ffd5b50610132600480360381019061012d919061092c565b61042a565b604051610143959493929190610ad6565b60405180910390f35b348015610157575f5ffd5b50610172600480360381019061016d9190610c84565b61050e565b005b34801561017f575f5ffd5b5061018861064f565b6040516101959190610cf0565b60405180910390f35b6101a6610655565b005b3480156101b3575f5ffd5b506101ce60048036038101906101c9919061092c565b610708565b005b60035f9054906101000a900473ffffffffffffffffffffffffffffffffffffffff1673ffffffffffffffffffffffffffffffffffffffff163373ffffffffffffffffffffffffffffffffffffffff161461025f576040517f08c379a000000000000000000000000000000000000000000000000000000000815260040161025690610d53565b60405180910390fd5b5f60025f8381526020019081526020015f2090505f5482106102b6576040517f08c379a00000000000000000000000000000000000000000000000000000000081526004016102ad90610dbb565b60405180910390fd5b8060020160149054906101000a900460ff1615610308576040517f08c379a00000000000000000000000000000000000000000000000000000000081526004016102ff90610e23565b60405180910390fd5b60026001546103179190610e9b565b81600301541161035c576040517f08c379a000000000000000000000000000000000000000000000000000000000815260040161035390610f3b565b60405180910390fd5b806002015f9054906101000a900473ffffffffffffffffffffffffffffffffffffffff1673ffffffffffffffffffffffffffffffffffffffff166108fc826001015490811502906040515f60405180830381858888f193505050501580156103c6573d5f5f3e3d5ffd5b5060018160020160146101000a81548160ff0219169083151502179055505050565b6005602052805f5260405f205f915054906101000a900460ff1681565b60035f9054906101000a900473ffffffffffffffffffffffffffffffffffffffff1681565b6002602052805f5260405f205f91509050805f01805461044990610f86565b80601f016020809104026020016040519081016040528092919081815260200182805461047590610f86565b80156104c05780601f10610497576101008083540402835291602001916104c0565b820191905f5260205f20905b8154815290600101906020018083116104a357829003601f168201915b505050505090806001015490806002015f9054906101000a900473ffffffffffffffffffffffffffffffffffffffff16908060020160149054906101000a900460ff16908060030154905085565b60035f9054906101000a900473ffffffffffffffffffffffffffffffffffffffff1673ffffffffffffffffffffffffffffffffffffffff163373ffffffffffffffffffffffffffffffffffffffff161461059d576040517f08c379a000000000000000000000000000000000000000000000000000000000815260040161059490610d53565b60405180910390fd5b5f60025f5f5481526020019081526020015f20905083815f0190816105c29190611156565b5082816001018190555081816002015f6101000a81548173ffffffffffffffffffffffffffffffffffffffff021916908373ffffffffffffffffffffffffffffffffffffffff1602179055505f8160020160146101000a81548160ff0219169083151502179055505f81600301819055505f5f81548092919061064490611225565b919050555050505050565b60045481565b60045434101561069a576040517f08c379a0000000000000000000000000000000000000000000000000000000008152600401610691906112dc565b60405180910390fd5b600160055f3373ffffffffffffffffffffffffffffffffffffffff1673ffffffffffffffffffffffffffffffffffffffff1681526020019081526020015f205f6101000a81548160ff02191690831515021790555060015f81548092919061070190611225565b9190505550565b60055f3373ffffffffffffffffffffffffffffffffffffffff1673ffffffffffffffffffffffffffffffffffffffff1681526020019081526020015f205f9054906101000a900460ff16610791576040517f08c379a00000000000000000000000000000000000000000000000000000000081526004016107889061136a565b60405180910390fd5b5f60025f8381526020019081526020015f2090505f5482106107e8576040517f08c379a00000000000000000000000000000000000000000000000000000000081526004016107df90610dbb565b60405180910390fd5b806004015f3373ffffffffffffffffffffffffffffffffffffffff1673ffffffffffffffffffffffffffffffffffffffff1681526020019081526020015f205f9054906101000a900460ff1615610874576040517f08c379a000000000000000000000000000000000000000000000000000000000815260040161086b906113f8565b60405180910390fd5b6001816004015f3373ffffffffffffffffffffffffffffffffffffffff1673ffffffffffffffffffffffffffffffffffffffff1681526020019081526020015f205f6101000a81548160ff021916908315150217905550806003015f8154809291906108df90611225565b91905055505050565b5f604051905090565b5f5ffd5b5f5ffd5b5f819050919050565b61090b816108f9565b8114610915575f5ffd5b50565b5f8135905061092681610902565b92915050565b5f60208284031215610941576109406108f1565b5b5f61094e84828501610918565b91505092915050565b5f73ffffffffffffffffffffffffffffffffffffffff82169050919050565b5f61098082610957565b9050919050565b61099081610976565b811461099a575f5ffd5b50565b5f813590506109ab81610987565b92915050565b5f602082840312156109c6576109c56108f1565b5b5f6109d38482850161099d565b91505092915050565b5f8115159050919050565b6109f0816109dc565b82525050565b5f602082019050610a095f8301846109e7565b92915050565b610a1881610976565b82525050565b5f602082019050610a315f830184610a0f565b92915050565b5f81519050919050565b5f82825260208201905092915050565b8281835e5f83830152505050565b5f601f19601f8301169050919050565b5f610a7982610a37565b610a838185610a41565b9350610a93818560208601610a51565b610a9c81610a5f565b840191505092915050565b610ab0816108f9565b82525050565b5f610ac082610957565b9050919050565b610ad081610ab6565b82525050565b5f60a0820190508181035f830152610aee8188610a6f565b9050610afd6020830187610aa7565b610b0a6040830186610ac7565b610b1760608301856109e7565b610b246080830184610aa7565b9695505050505050565b5f5ffd5b5f5ffd5b7f4e487b71000000000000000000000000000000000000000000000000000000005f52604160045260245ffd5b610b6c82610a5f565b810181811067ffffffffffffffff82111715610b8b57610b8a610b36565b5b80604052505050565b5f610b9d6108e8565b9050610ba98282610b63565b919050565b5f67ffffffffffffffff821115610bc857610bc7610b36565b5b610bd182610a5f565b9050602081019050919050565b828183375f83830152505050565b5f610bfe610bf984610bae565b610b94565b905082815260208101848484011115610c1a57610c19610b32565b5b610c25848285610bde565b509392505050565b5f82601f830112610c4157610c40610b2e565b5b8135610c51848260208601610bec565b91505092915050565b610c6381610ab6565b8114610c6d575f5ffd5b50565b5f81359050610c7e81610c5a565b92915050565b5f5f5f60608486031215610c9b57610c9a6108f1565b5b5f84013567ffffffffffffffff811115610cb857610cb76108f5565b5b610cc486828701610c2d565b9350506020610cd586828701610918565b9250506040610ce686828701610c70565b9150509250925092565b5f602082019050610d035f830184610aa7565b92915050565b7f746869732066756e6374696f6e206973206d616e616765722d6f6e6c790000005f82015250565b5f610d3d601d83610a41565b9150610d4882610d09565b602082019050919050565b5f6020820190508181035f830152610d6a81610d31565b9050919050565b7f5265717565737420646f6573206e6f74206578697374000000000000000000005f82015250565b5f610da5601683610a41565b9150610db082610d71565b602082019050919050565b5f6020820190508181035f830152610dd281610d99565b9050919050565b7f74686973207265717565737420697320616c726561647920636f6d706c6574655f82015250565b5f610e0d602083610a41565b9150610e1882610dd9565b602082019050919050565b5f6020820190508181035f830152610e3a81610e01565b9050919050565b7f4e487b71000000000000000000000000000000000000000000000000000000005f52601260045260245ffd5b7f4e487b71000000000000000000000000000000000000000000000000000000005f52601160045260245ffd5b5f610ea5826108f9565b9150610eb0836108f9565b925082610ec057610ebf610e41565b5b828204905092915050565b7f74686973207265717565737420646f65736e2774206861766520617070726f765f8201527f616572206d616a6f726974790000000000000000000000000000000000000000602082015250565b5f610f25602c83610a41565b9150610f3082610ecb565b604082019050919050565b5f6020820190508181035f830152610f5281610f19565b9050919050565b7f4e487b71000000000000000000000000000000000000000000000000000000005f52602260045260245ffd5b5f6002820490506001821680610f9d57607f821691505b602082108103610fb057610faf610f59565b5b50919050565b5f819050815f5260205f209050919050565b5f6020601f8301049050919050565b5f82821b905092915050565b5f600883026110127fffffffffffffffffffffffffffffffffffffffffffffffffffffffffffffffff82610fd7565b61101c8683610fd7565b95508019841693508086168417925050509392505050565b5f819050919050565b5f61105761105261104d846108f9565b611034565b6108f9565b9050919050565b5f819050919050565b6110708361103d565b61108461107c8261105e565b848454610fe3565b825550505050565b5f5f905090565b61109b61108c565b6110a6818484611067565b505050565b5b818110156110c9576110be5f82611093565b6001810190506110ac565b5050565b601f82111561110e576110df81610fb6565b6110e884610fc8565b810160208510156110f7578190505b61110b61110385610fc8565b8301826110ab565b50505b505050565b5f82821c905092915050565b5f61112e5f1984600802611113565b1980831691505092915050565b5f611146838361111f565b9150826002028217905092915050565b61115f82610a37565b67ffffffffffffffff81111561117857611177610b36565b5b6111828254610f86565b61118d8282856110cd565b5f60209050601f8311600181146111be575f84156111ac578287015190505b6111b6858261113b565b86555061121d565b601f1984166111cc86610fb6565b5f5b828110156111f3578489015182556001820191506020850194506020810190506111ce565b86831015611210578489015161120c601f89168261111f565b8355505b6001600288020188555050505b505050505050565b5f61122f826108f9565b91507fffffffffffffffffffffffffffffffffffffffffffffffffffffffffffffffff820361126157611260610e6e565b5b600182019050919050565b7f636f6e747269627574696f6e206d7573742062652067726561746572206f72205f8201527f657175616c207468616e206d696e696d756d0000000000000000000000000000602082015250565b5f6112c6603283610a41565b91506112d18261126c565b604082019050919050565b5f6020820190508181035f8301526112f3816112ba565b9050919050565b7f746869732066756e6374696f6e20697320636f6e7472696275746f724f6e6c795f8201527f2d6f6e6c79000000000000000000000000000000000000000000000000000000602082015250565b5f611354602583610a41565b915061135f826112fa565b604082019050919050565b5f6020820190508181035f83015261138181611348565b9050919050565b7f796f75206861766520616c726561647920617070726f766564207468652072655f8201527f7175657374000000000000000000000000000000000000000000000000000000602082015250565b5f6113e2602583610a41565b91506113ed82611388565b604082019050919050565b5f6020820190508181035f83015261140f816113d6565b905091905056fea26469706673582212209304c275708bfa1f5c50c9487dc6bc3113d1419695bca203ad1761f871debf7864736f6c634300081c0033",
      "opcodes": "PUSH1 0x80 PUSH1 0x40 MSTORE CALLVALUE DUP1 ISZERO PUSH2 0xF JUMPI PUSH0 PUSH0 REVERT JUMPDEST POP PUSH1 0x40 MLOAD PUSH2 0x15AE CODESIZE SUB DUP1 PUSH2 0x15AE DUP4 CODECOPY DUP2 DUP2 ADD PUSH1 0x40 MSTORE DUP2 ADD SWAP1 PUSH2 0x31 SWAP2 SWAP1 PUSH2 0x117 JUMP JUMPDEST DUP1 PUSH1 0x3 PUSH0 PUSH2 0x100 EXP DUP2 SLOAD DUP2 PUSH20 0xFFFFFFFFFFFFFFFFFFFFFFFFFFFFFFFFFFFFFFFF MUL NOT AND SWAP1 DUP4 PUSH20 0xFFFFFFFFFFFFFFFFFFFFFFFFFFFFFFFFFFFFFFFF AND MUL OR SWAP1 SSTORE POP DUP2 PUSH1 0x4 DUP2 SWAP1 SSTORE POP PUSH1 0x1 PUSH0 DUP2 SWAP1 SSTORE POP POP POP PUSH2 0x155 JUMP JUMPDEST PUSH0 PUSH0 REVERT JUMPDEST PUSH0 DUP2 SWAP1 POP SWAP2 SWAP1 POP JUMP JUMPDEST PUSH2 0x9C DUP2 PUSH2 0x8A JUMP JUMPDEST DUP2 EQ PUSH2 0xA6 JUMPI PUSH0 PUSH0 REVERT JUMPDEST POP JUMP JUMPDEST PUSH0 DUP2 MLOAD SWAP1 POP PUSH2 0xB7 DUP2 PUSH2 0x93 JUMP JUMPDEST SWAP3 SWAP2 POP POP JUMP JUMPDEST PUSH0 PUSH20 0xFFFFFFFFFFFFFFFFFFFFFFFFFFFFFFFFFFFFFFFF DUP3 AND SWAP1 POP SWAP2 SWAP1 POP JUMP JUMPDEST PUSH0 PUSH2 0xE6 DUP3 PUSH2 0xBD JUMP JUMPDEST SWAP1 POP SWAP2 SWAP1 POP JUMP JUMPDEST PUSH2 0xF6 DUP2 PUSH2 0xDC JUMP JUMPDEST DUP2 EQ PUSH2 0x100 JUMPI PUSH0 PUSH0 REVERT JUMPDEST POP JUMP JUMPDEST PUSH0 DUP2 MLOAD SWAP1 POP PUSH2 0x111 DUP2 PUSH2 0xED JUMP JUMPDEST SWAP3 SWAP2 POP POP JUMP JUMPDEST PUSH0 PUSH0 PUSH1 0x40 DUP4 DUP6 SUB SLT ISZERO PUSH2 0x12D JUMPI PUSH2 0x12C PUSH2 0x86 JUMP JUMPDEST JUMPDEST PUSH0 PUSH2 0x13A DUP6 DUP3 DUP7 ADD PUSH2 0xA9 JUMP JUMPDEST SWAP3 POP POP PUSH1 0x20 PUSH2 0x14B DUP6 DUP3 DUP7 ADD PUSH2 0x103 JUMP JUMPDEST SWAP2 POP POP SWAP3 POP SWAP3 SWAP1 POP JUMP JUMPDEST PUSH2 0x144C DUP1 PUSH2 0x162 PUSH0 CODECOPY PUSH0 RETURN INVALID PUSH1 0x80 PUSH1 0x40 MSTORE PUSH1 0x4 CALLDATASIZE LT PUSH2 0x7A JUMPI PUSH0 CALLDATALOAD PUSH1 0xE0 SHR DUP1 PUSH4 0x8A9CFD55 GT PUSH2 0x4D JUMPI DUP1 PUSH4 0x8A9CFD55 EQ PUSH2 0x14C JUMPI DUP1 PUSH4 0x937E09B1 EQ PUSH2 0x174 JUMPI DUP1 PUSH4 0xD7BB99BA EQ PUSH2 0x19E JUMPI DUP1 PUSH4 0xD7D1BBDB EQ PUSH2 0x1A8 JUMPI PUSH2 0x7A JUMP JUMPDEST DUP1 PUSH4 0x3441006 EQ PUSH2 0x7E JUMPI DUP1 PUSH4 0xA144391 EQ PUSH2 0xA6 JUMPI DUP1 PUSH4 0x481C6A75 EQ PUSH2 0xE2 JUMPI DUP1 PUSH4 0x81D12C58 EQ PUSH2 0x10C JUMPI JUMPDEST PUSH0 PUSH0 REVERT JUMPDEST CALLVALUE DUP1 ISZERO PUSH2 0x89 JUMPI PUSH0 PUSH0 REVERT JUMPDEST POP PUSH2 0xA4 PUSH1 0x4 DUP1 CALLDATASIZE SUB DUP2 ADD SWAP1 PUSH2 0x9F SWAP2 SWAP1 PUSH2 0x92C JUMP JUMPDEST PUSH2 0x1D0 JUMP JUMPDEST STOP JUMPDEST CALLVALUE DUP1 ISZERO PUSH2 0xB1 JUMPI PUSH0 PUSH0 REVERT JUMPDEST POP PUSH2 0xCC PUSH1 0x4 DUP1 CALLDATASIZE SUB DUP2 ADD SWAP1 PUSH2 0xC7 SWAP2 SWAP1 PUSH2 0x9B1 JUMP JUMPDEST PUSH2 0x3E8 JUMP JUMPDEST PUSH1 0x40 MLOAD PUSH2 0xD9 SWAP2 SWAP1 PUSH2 0x9F6 JUMP JUMPDEST PUSH1 0x40 MLOAD DUP1 SWAP2 SUB SWAP1 RETURN JUMPDEST CALLVALUE DUP1 ISZERO PUSH2 0xED JUMPI PUSH0 PUSH0 REVERT JUMPDEST POP PUSH2 0xF6 PUSH2 0x405 JUMP JUMPDEST PUSH1 0x40 MLOAD PUSH2 0x103 SWAP2 SWAP1 PUSH2 0xA1E JUMP JUMPDEST PUSH1 0x40 MLOAD DUP1 SWAP2 SUB SWAP1 RETURN JUMPDEST CALLVALUE DUP1 ISZERO PUSH2 0x117 JUMPI PUSH0 PUSH0 REVERT JUMPDEST POP PUSH2 0x132 PUSH1 0x4 DUP1 CALLDATASIZE SUB DUP2 ADD SWAP1 PUSH2 0x12D SWAP2 SWAP1 PUSH2 0x92C JUMP JUMPDEST PUSH2 0x42A JUMP JUMPDEST PUSH1 0x40 MLOAD PUSH2 0x143 SWAP6 SWAP5 SWAP4 SWAP3 SWAP2 SWAP1 PUSH2 0xAD6 JUMP JUMPDEST PUSH1 0x40 MLOAD DUP1 SWAP2 SUB SWAP1 RETURN JUMPDEST CALLVALUE DUP1 ISZERO PUSH2 0x157 JUMPI PUSH0 PUSH0 REVERT JUMPDEST POP PUSH2 0x172 PUSH1 0x4 DUP1 CALLDATASIZE SUB DUP2 ADD SWAP1 PUSH2 0x16D SWAP2 SWAP1 PUSH2 0xC84 JUMP JUMPDEST PUSH2 0x50E JUMP JUMPDEST STOP JUMPDEST CALLVALUE DUP1 ISZERO PUSH2 0x17F JUMPI PUSH0 PUSH0 REVERT JUMPDEST POP PUSH2 0x188 PUSH2 0x64F JUMP JUMPDEST PUSH1 0x40 MLOAD PUSH2 0x195 SWAP2 SWAP1 PUSH2 0xCF0 JUMP JUMPDEST PUSH1 0x40 MLOAD DUP1 SWAP2 SUB SWAP1 RETURN JUMPDEST PUSH2 0x1A6 PUSH2 0x655 JUMP JUMPDEST STOP JUMPDEST CALLVALUE DUP1 ISZERO PUSH2 0x1B3 JUMPI PUSH0 PUSH0 REVERT JUMPDEST POP PUSH2 0x1CE PUSH1 0x4 DUP1 CALLDATASIZE SUB DUP2 ADD SWAP1 PUSH2 0x1C9 SWAP2 SWAP1 PUSH2 0x92C JUMP JUMPDEST PUSH2 0x708 JUMP JUMPDEST STOP JUMPDEST PUSH1 0x3 PUSH0 SWAP1 SLOAD SWAP1 PUSH2 0x100 EXP SWAP1 DIV PUSH20 0xFFFFFFFFFFFFFFFFFFFFFFFFFFFFFFFFFFFFFFFF AND PUSH20 0xFFFFFFFFFFFFFFFFFFFFFFFFFFFFFFFFFFFFFFFF AND CALLER PUSH20 0xFFFFFFFFFFFFFFFFFFFFFFFFFFFFFFFFFFFFFFFF AND EQ PUSH2 0x25F JUMPI PUSH1 0x40 MLOAD PUSH32 0x8C379A000000000000000000000000000000000000000000000000000000000 DUP2 MSTORE PUSH1 0x4 ADD PUSH2 0x256 SWAP1 PUSH2 0xD53 JUMP JUMPDEST PUSH1 0x40 MLOAD DUP1 SWAP2 SUB SWAP1 REVERT JUMPDEST PUSH0 PUSH1 0x2 PUSH0 DUP4 DUP2 MSTORE PUSH1 0x20 ADD SWAP1 DUP2 MSTORE PUSH1 0x20 ADD PUSH0 KECCAK256 SWAP1 POP PUSH0 SLOAD DUP3 LT PUSH2 0x2B6 JUMPI PUSH1 0x40 MLOAD PUSH32 0x8C379A000000000000000000000000000000000000000000000000000000000 DUP2 MSTORE PUSH1 0x4 ADD PUSH2 0x2AD SWAP1 PUSH2 0xDBB JUMP JUMPDEST PUSH1 0x40 MLOAD DUP1 SWAP2 SUB SWAP1 REVERT JUMPDEST DUP1 PUSH1 0x2 ADD PUSH1 0x14 SWAP1 SLOAD SWAP1 PUSH2 0x100 EXP SWAP1 DIV PUSH1 0xFF AND ISZERO PUSH2 0x308 JUMPI PUSH1 0x40 MLOAD PUSH32 0x8C379A000000000000000000000000000000000000000000000000000000000 DUP2 MSTORE PUSH1 0x4 ADD PUSH2 0x2FF SWAP1 PUSH2 0xE23 JUMP JUMPDEST PUSH1 0x40 MLOAD DUP1 SWAP2 SUB SWAP1 REVERT JUMPDEST PUSH1 0x2 PUSH1 0x1 SLOAD PUSH2 0x317 SWAP2 SWAP1 PUSH2 0xE9B JUMP JUMPDEST DUP2 PUSH1 0x3 ADD SLOAD GT PUSH2 0x35C JUMPI PUSH1 0x40 MLOAD PUSH32 0x8C379A000000000000000000000000000000000000000000000000000000000 DUP2 MSTORE PUSH1 0x4 ADD PUSH2 0x353 SWAP1 PUSH2 0xF3B JUMP JUMPDEST PUSH1 0x40 MLOAD DUP1 SWAP2 SUB SWAP1 REVERT JUMPDEST DUP1 PUSH1 0x2 ADD PUSH0 SWAP1 SLOAD SWAP1 PUSH2 0x100 EXP SWAP1 DIV PUSH20 0xFFFFFFFFFFFFFFFFFFFFFFFFFFFFFFFFFFFFFFFF AND PUSH20 0xFFFFFFFFFFFFFFFFFFFFFFFFFFFFFFFFFFFFFFFF AND PUSH2 0x8FC DUP3 PUSH1 0x1 ADD SLOAD SWAP1 DUP2 ISZERO MUL SWAP1 PUSH1 0x40 MLOAD PUSH0 PUSH1 0x40 MLOAD DUP1 DUP4 SUB DUP2 DUP6 DUP9 DUP9 CALL SWAP4 POP POP POP POP ISZERO DUP1 ISZERO PUSH2 0x3C6 JUMPI RETURNDATASIZE PUSH0 PUSH0 RETURNDATACOPY RETURNDATASIZE PUSH0 REVERT JUMPDEST POP PUSH1 0x1 DUP2 PUSH1 0x2 ADD PUSH1 0x14 PUSH2 0x100 EXP DUP2 SLOAD DUP2 PUSH1 0xFF MUL NOT AND SWAP1 DUP4 ISZERO ISZERO MUL OR SWAP1 SSTORE POP POP POP JUMP JUMPDEST PUSH1 0x5 PUSH1 0x20 MSTORE DUP1 PUSH0 MSTORE PUSH1 0x40 PUSH0 KECCAK256 PUSH0 SWAP2 POP SLOAD SWAP1 PUSH2 0x100 EXP SWAP1 DIV PUSH1 0xFF AND DUP2 JUMP JUMPDEST PUSH1 0x3 PUSH0 SWAP1 SLOAD SWAP1 PUSH2 0x100 EXP SWAP1 DIV PUSH20 0xFFFFFFFFFFFFFFFFFFFFFFFFFFFFFFFFFFFFFFFF AND DUP2 JUMP JUMPDEST PUSH1 0x2 PUSH1 0x20 MSTORE DUP1 PUSH0 MSTORE PUSH1 0x40 PUSH0 KECCAK256 PUSH0 SWAP2 POP SWAP1 POP DUP1 PUSH0 ADD DUP1 SLOAD PUSH2 0x449 SWAP1 PUSH2 0xF86 JUMP JUMPDEST DUP1 PUSH1 0x1F ADD PUSH1 0x20 DUP1 SWAP2 DIV MUL PUSH1 0x20 ADD PUSH1 0x40 MLOAD SWAP1 DUP2 ADD PUSH1 0x40 MSTORE DUP1 SWAP3 SWAP2 SWAP1 DUP2 DUP2 MSTORE PUSH1 0x20 ADD DUP3 DUP1 SLOAD PUSH2 0x475 SWAP1 PUSH2 0xF86 JUMP JUMPDEST DUP1 ISZERO PUSH2 0x4C0 JUMPI DUP1 PUSH1 0x1F LT PUSH2 0x497 JUMPI PUSH2 0x100 DUP1 DUP4 SLOAD DIV MUL DUP4 MSTORE SWAP2 PUSH1 0x20 ADD SWAP2 PUSH2 0x4C0 JUMP JUMPDEST DUP3 ADD SWAP2 SWAP1 PUSH0 MSTORE PUSH1 0x20 PUSH0 KECCAK256 SWAP1 JUMPDEST DUP2 SLOAD DUP2 MSTORE SWAP1 PUSH1 0x1 ADD SWAP1 PUSH1 0x20 ADD DUP1 DUP4 GT PUSH2 0x4A3 JUMPI DUP3 SWAP1 SUB PUSH1 0x1F AND DUP3 ADD SWAP2 JUMPDEST POP POP POP POP POP SWAP1 DUP1 PUSH1 0x1 ADD SLOAD SWAP1 DUP1 PUSH1 0x2 ADD PUSH0 SWAP1 SLOAD SWAP1 PUSH2 0x100 EXP SWAP1 DIV PUSH20 0xFFFFFFFFFFFFFFFFFFFFFFFFFFFFFFFFFFFFFFFF AND SWAP1 DUP1 PUSH1 0x2 ADD PUSH1 0x14 SWAP1 SLOAD SWAP1 PUSH2 0x100 EXP SWAP1 DIV PUSH1 0xFF AND SWAP1 DUP1 PUSH1 0x3 ADD SLOAD SWAP1 POP DUP6 JUMP JUMPDEST PUSH1 0x3 PUSH0 SWAP1 SLOAD SWAP1 PUSH2 0x100 EXP SWAP1 DIV PUSH20 0xFFFFFFFFFFFFFFFFFFFFFFFFFFFFFFFFFFFFFFFF AND PUSH20 0xFFFFFFFFFFFFFFFFFFFFFFFFFFFFFFFFFFFFFFFF AND CALLER PUSH20 0xFFFFFFFFFFFFFFFFFFFFFFFFFFFFFFFFFFFFFFFF AND EQ PUSH2 0x59D JUMPI PUSH1 0x40 MLOAD PUSH32 0x8C379A000000000000000000000000000000000000000000000000000000000 DUP2 MSTORE PUSH1 0x4 ADD PUSH2 0x594 SWAP1 PUSH2 0xD53 JUMP JUMPDEST PUSH1 0x40 MLOAD DUP1 SWAP2 SUB SWAP1 REVERT JUMPDEST PUSH0 PUSH1 0x2 PUSH0 PUSH0 SLOAD DUP2 MSTORE PUSH1 0x20 ADD SWAP1 DUP2 MSTORE PUSH1 0x20 ADD PUSH0 KECCAK256 SWAP1 POP DUP4 DUP2 PUSH0 ADD SWAP1 DUP2 PUSH2 0x5C2 SWAP2 SWAP1 PUSH2 0x1156 JUMP JUMPDEST POP DUP3 DUP2 PUSH1 0x1 ADD DUP2 SWAP1 SSTORE POP DUP2 DUP2 PUSH1 0x2 ADD PUSH0 PUSH2 0x100 EXP DUP2 SLOAD DUP2 PUSH20 0xFFFFFFFFFFFFFFFFFFFFFFFFFFFFFFFFFFFFFFFF MUL NOT AND SWAP1 DUP4 PUSH20 0xFFFFFFFFFFFFFFFFFFFFFFFFFFFFFFFFFFFFFFFF AND MUL OR SWAP1 SSTORE POP PUSH0 DUP2 PUSH1 0x2 ADD PUSH1 0x14 PUSH2 0x100 EXP DUP2 SLOAD DUP2 PUSH1 0xFF MUL NOT AND SWAP1 DUP4 ISZERO ISZERO MUL OR SWAP1 SSTORE POP PUSH0 DUP2 PUSH1 0x3 ADD DUP2 SWAP1 SSTORE POP PUSH0 PUSH0 DUP2 SLOAD DUP1 SWAP3 SWAP2 SWAP1 PUSH2 0x644 SWAP1 PUSH2 0x1225 JUMP JUMPDEST SWAP2 SWAP1 POP SSTORE POP POP POP POP POP JUMP JUMPDEST PUSH1 0x4 SLOAD DUP2 JUMP JUMPDEST PUSH1 0x4 SLOAD CALLVALUE LT ISZERO PUSH2 0x69A JUMPI PUSH1 0x40 MLOAD PUSH32 0x8C379A000000000000000000000000000000000000000000000000000000000 DUP2 MSTORE PUSH1 0x4 ADD PUSH2 0x691 SWAP1 PUSH2 0x12DC JUMP JUMPDEST PUSH1 0x40 MLOAD DUP1 SWAP2 SUB SWAP1 REVERT JUMPDEST PUSH1 0x1 PUSH1 0x5 PUSH0 CALLER PUSH20 0xFFFFFFFFFFFFFFFFFFFFFFFFFFFFFFFFFFFFFFFF AND PUSH20 0xFFFFFFFFFFFFFFFFFFFFFFFFFFFFFFFFFFFFFFFF AND DUP2 MSTORE PUSH1 0x20 ADD SWAP1 DUP2 MSTORE PUSH1 0x20 ADD PUSH0 KECCAK256 PUSH0 PUSH2 0x100 EXP DUP2 SLOAD DUP2 PUSH1 0xFF MUL NOT AND SWAP1 DUP4 ISZERO ISZERO MUL OR SWAP1 SSTORE POP PUSH1 0x1 PUSH0 DUP2 SLOAD DUP1 SWAP3 SWAP2 SWAP1 PUSH2 0x701 SWAP1 PUSH2 0x1225 JUMP JUMPDEST SWAP2 SWAP1 POP SSTORE POP JUMP JUMPDEST PUSH1 0x5 PUSH0 CALLER PUSH20 0xFFFFFFFFFFFFFFFFFFFFFFFFFFFFFFFFFFFFFFFF AND PUSH20 0xFFFFFFFFFFFFFFFFFFFFFFFFFFFFFFFFFFFFFFFF AND DUP2 MSTORE PUSH1 0x20 ADD SWAP1 DUP2 MSTORE PUSH1 0x20 ADD PUSH0 KECCAK256 PUSH0 SWAP1 SLOAD SWAP1 PUSH2 0x100 EXP SWAP1 DIV PUSH1 0xFF AND PUSH2 0x791 JUMPI PUSH1 0x40 MLOAD PUSH32 0x8C379A000000000000000000000000000000000000000000000000000000000 DUP2 MSTORE PUSH1 0x4 ADD PUSH2 0x788 SWAP1 PUSH2 0x136A JUMP JUMPDEST PUSH1 0x40 MLOAD DUP1 SWAP2 SUB SWAP1 REVERT JUMPDEST PUSH0 PUSH1 0x2 PUSH0 DUP4 DUP2 MSTORE PUSH1 0x20 ADD SWAP1 DUP2 MSTORE PUSH1 0x20 ADD PUSH0 KECCAK256 SWAP1 POP PUSH0 SLOAD DUP3 LT PUSH2 0x7E8 JUMPI PUSH1 0x40 MLOAD PUSH32 0x8C379A000000000000000000000000000000000000000000000000000000000 DUP2 MSTORE PUSH1 0x4 ADD PUSH2 0x7DF SWAP1 PUSH2 0xDBB JUMP JUMPDEST PUSH1 0x40 MLOAD DUP1 SWAP2 SUB SWAP1 REVERT JUMPDEST DUP1 PUSH1 0x4 ADD PUSH0 CALLER PUSH20 0xFFFFFFFFFFFFFFFFFFFFFFFFFFFFFFFFFFFFFFFF AND PUSH20 0xFFFFFFFFFFFFFFFFFFFFFFFFFFFFFFFFFFFFFFFF AND DUP2 MSTORE PUSH1 0x20 ADD SWAP1 DUP2 MSTORE PUSH1 0x20 ADD PUSH0 KECCAK256 PUSH0 SWAP1 SLOAD SWAP1 PUSH2 0x100 EXP SWAP1 DIV PUSH1 0xFF AND ISZERO PUSH2 0x874 JUMPI PUSH1 0x40 MLOAD PUSH32 0x8C379A000000000000000000000000000000000000000000000000000000000 DUP2 MSTORE PUSH1 0x4 ADD PUSH2 0x86B SWAP1 PUSH2 0x13F8 JUMP JUMPDEST PUSH1 0x40 MLOAD DUP1 SWAP2 SUB SWAP1 REVERT JUMPDEST PUSH1 0x1 DUP2 PUSH1 0x4 ADD PUSH0 CALLER PUSH20 0xFFFFFFFFFFFFFFFFFFFFFFFFFFFFFFFFFFFFFFFF AND PUSH20 0xFFFFFFFFFFFFFFFFFFFFFFFFFFFFFFFFFFFFFFFF AND DUP2 MSTORE PUSH1 0x20 ADD SWAP1 DUP2 MSTORE PUSH1 0x20 ADD PUSH0 KECCAK256 PUSH0 PUSH2 0x100 EXP DUP2 SLOAD DUP2 PUSH1 0xFF MUL NOT AND SWAP1 DUP4 ISZERO ISZERO MUL OR SWAP1 SSTORE POP DUP1 PUSH1 0x3 ADD PUSH0 DUP2 SLOAD DUP1 SWAP3 SWAP2 SWAP1 PUSH2 0x8DF SWAP1 PUSH2 0x1225 JUMP JUMPDEST SWAP2 SWAP1 POP SSTORE POP POP POP JUMP JUMPDEST PUSH0 PUSH1 0x40 MLOAD SWAP1 POP SWAP1 JUMP JUMPDEST PUSH0 PUSH0 REVERT JUMPDEST PUSH0 PUSH0 REVERT JUMPDEST PUSH0 DUP2 SWAP1 POP SWAP2 SWAP1 POP JUMP JUMPDEST PUSH2 0x90B DUP2 PUSH2 0x8F9 JUMP JUMPDEST DUP2 EQ PUSH2 0x915 JUMPI PUSH0 PUSH0 REVERT JUMPDEST POP JUMP JUMPDEST PUSH0 DUP2 CALLDATALOAD SWAP1 POP PUSH2 0x926 DUP2 PUSH2 0x902 JUMP JUMPDEST SWAP3 SWAP2 POP POP JUMP JUMPDEST PUSH0 PUSH1 0x20 DUP3 DUP5 SUB SLT ISZERO PUSH2 0x941 JUMPI PUSH2 0x940 PUSH2 0x8F1 JUMP JUMPDEST JUMPDEST PUSH0 PUSH2 0x94E DUP5 DUP3 DUP6 ADD PUSH2 0x918 JUMP JUMPDEST SWAP2 POP POP SWAP3 SWAP2 POP POP JUMP JUMPDEST PUSH0 PUSH20 0xFFFFFFFFFFFFFFFFFFFFFFFFFFFFFFFFFFFFFFFF DUP3 AND SWAP1 POP SWAP2 SWAP1 POP JUMP JUMPDEST PUSH0 PUSH2 0x980 DUP3 PUSH2 0x957 JUMP JUMPDEST SWAP1 POP SWAP2 SWAP1 POP JUMP JUMPDEST PUSH2 0x990 DUP2 PUSH2 0x976 JUMP JUMPDEST DUP2 EQ PUSH2 0x99A JUMPI PUSH0 PUSH0 REVERT JUMPDEST POP JUMP JUMPDEST PUSH0 DUP2 CALLDATALOAD SWAP1 POP PUSH2 0x9AB DUP2 PUSH2 0x987 JUMP JUMPDEST SWAP3 SWAP2 POP POP JUMP JUMPDEST PUSH0 PUSH1 0x20 DUP3 DUP5 SUB SLT ISZERO PUSH2 0x9C6 JUMPI PUSH2 0x9C5 PUSH2 0x8F1 JUMP JUMPDEST JUMPDEST PUSH0 PUSH2 0x9D3 DUP5 DUP3 DUP6 ADD PUSH2 0x99D JUMP JUMPDEST SWAP2 POP POP SWAP3 SWAP2 POP POP JUMP JUMPDEST PUSH0 DUP2 ISZERO ISZERO SWAP1 POP SWAP2 SWAP1 POP JUMP JUMPDEST PUSH2 0x9F0 DUP2 PUSH2 0x9DC JUMP JUMPDEST DUP3 MSTORE POP POP JUMP JUMPDEST PUSH0 PUSH1 0x20 DUP3 ADD SWAP1 POP PUSH2 0xA09 PUSH0 DUP4 ADD DUP5 PUSH2 0x9E7 JUMP JUMPDEST SWAP3 SWAP2 POP POP JUMP JUMPDEST PUSH2 0xA18 DUP2 PUSH2 0x976 JUMP JUMPDEST DUP3 MSTORE POP POP JUMP JUMPDEST PUSH0 PUSH1 0x20 DUP3 ADD SWAP1 POP PUSH2 0xA31 PUSH0 DUP4 ADD DUP5 PUSH2 0xA0F JUMP JUMPDEST SWAP3 SWAP2 POP POP JUMP JUMPDEST PUSH0 DUP2 MLOAD SWAP1 POP SWAP2 SWAP1 POP JUMP JUMPDEST PUSH0 DUP3 DUP3 MSTORE PUSH1 0x20 DUP3 ADD SWAP1 POP SWAP3 SWAP2 POP POP JUMP JUMPDEST DUP3 DUP2 DUP4 MCOPY PUSH0 DUP4 DUP4 ADD MSTORE POP POP POP JUMP JUMPDEST PUSH0 PUSH1 0x1F NOT PUSH1 0x1F DUP4 ADD AND SWAP1 POP SWAP2 SWAP1 POP JUMP JUMPDEST PUSH0 PUSH2 0xA79 DUP3 PUSH2 0xA37 JUMP JUMPDEST PUSH2 0xA83 DUP2 DUP6 PUSH2 0xA41 JUMP JUMPDEST SWAP4 POP PUSH2 0xA93 DUP2 DUP6 PUSH1 0x20 DUP7 ADD PUSH2 0xA51 JUMP JUMPDEST PUSH2 0xA9C DUP2 PUSH2 0xA5F JUMP JUMPDEST DUP5 ADD SWAP2 POP POP SWAP3 SWAP2 POP POP JUMP JUMPDEST PUSH2 0xAB0 DUP2 PUSH2 0x8F9 JUMP JUMPDEST DUP3 MSTORE POP POP JUMP JUMPDEST PUSH0 PUSH2 0xAC0 DUP3 PUSH2 0x957 JUMP JUMPDEST SWAP1 POP SWAP2 SWAP1 POP JUMP JUMPDEST PUSH2 0xAD0 DUP2 PUSH2 0xAB6 JUMP JUMPDEST DUP3 MSTORE POP POP JUMP JUMPDEST PUSH0 PUSH1 0xA0 DUP3 ADD SWAP1 POP DUP2 DUP2 SUB PUSH0 DUP4 ADD MSTORE PUSH2 0xAEE DUP2 DUP9 PUSH2 0xA6F JUMP JUMPDEST SWAP1 POP PUSH2 0xAFD PUSH1 0x20 DUP4 ADD DUP8 PUSH2 0xAA7 JUMP JUMPDEST PUSH2 0xB0A PUSH1 0x40 DUP4 ADD DUP7 PUSH2 0xAC7 JUMP JUMPDEST PUSH2 0xB17 PUSH1 0x60 DUP4 ADD DUP6 PUSH2 0x9E7 JUMP JUMPDEST PUSH2 0xB24 PUSH1 0x80 DUP4 ADD DUP5 PUSH2 0xAA7 JUMP JUMPDEST SWAP7 SWAP6 POP POP POP POP POP POP JUMP JUMPDEST PUSH0 PUSH0 REVERT JUMPDEST PUSH0 PUSH0 REVERT JUMPDEST PUSH32 0x4E487B7100000000000000000000000000000000000000000000000000000000 PUSH0 MSTORE PUSH1 0x41 PUSH1 0x4 MSTORE PUSH1 0x24 PUSH0 REVERT JUMPDEST PUSH2 0xB6C DUP3 PUSH2 0xA5F JUMP JUMPDEST DUP2 ADD DUP2 DUP2 LT PUSH8 0xFFFFFFFFFFFFFFFF DUP3 GT OR ISZERO PUSH2 0xB8B JUMPI PUSH2 0xB8A PUSH2 0xB36 JUMP JUMPDEST JUMPDEST DUP1 PUSH1 0x40 MSTORE POP POP POP JUMP JUMPDEST PUSH0 PUSH2 0xB9D PUSH2 0x8E8 JUMP JUMPDEST SWAP1 POP PUSH2 0xBA9 DUP3 DUP3 PUSH2 0xB63 JUMP JUMPDEST SWAP2 SWAP1 POP JUMP JUMPDEST PUSH0 PUSH8 0xFFFFFFFFFFFFFFFF DUP3 GT ISZERO PUSH2 0xBC8 JUMPI PUSH2 0xBC7 PUSH2 0xB36 JUMP JUMPDEST JUMPDEST PUSH2 0xBD1 DUP3 PUSH2 0xA5F JUMP JUMPDEST SWAP1 POP PUSH1 0x20 DUP2 ADD SWAP1 POP SWAP2 SWAP1 POP JUMP JUMPDEST DUP3 DUP2 DUP4 CALLDATACOPY PUSH0 DUP4 DUP4 ADD MSTORE POP POP POP JUMP JUMPDEST PUSH0 PUSH2 0xBFE PUSH2 0xBF9 DUP5 PUSH2 0xBAE JUMP JUMPDEST PUSH2 0xB94 JUMP JUMPDEST SWAP1 POP DUP3 DUP2 MSTORE PUSH1 0x20 DUP2 ADD DUP5 DUP5 DUP5 ADD GT ISZERO PUSH2 0xC1A JUMPI PUSH2 0xC19 PUSH2 0xB32 JUMP JUMPDEST JUMPDEST PUSH2 0xC25 DUP5 DUP3 DUP6 PUSH2 0xBDE JUMP JUMPDEST POP SWAP4 SWAP3 POP POP POP JUMP JUMPDEST PUSH0 DUP3 PUSH1 0x1F DUP4 ADD SLT PUSH2 0xC41 JUMPI PUSH2 0xC40 PUSH2 0xB2E JUMP JUMPDEST JUMPDEST DUP2 CALLDATALOAD PUSH2 0xC51 DUP5 DUP3 PUSH1 0x20 DUP7 ADD PUSH2 0xBEC JUMP JUMPDEST SWAP2 POP POP SWAP3 SWAP2 POP POP JUMP JUMPDEST PUSH2 0xC63 DUP2 PUSH2 0xAB6 JUMP JUMPDEST DUP2 EQ PUSH2 0xC6D JUMPI PUSH0 PUSH0 REVERT JUMPDEST POP JUMP JUMPDEST PUSH0 DUP2 CALLDATALOAD SWAP1 POP PUSH2 0xC7E DUP2 PUSH2 0xC5A JUMP JUMPDEST SWAP3 SWAP2 POP POP JUMP JUMPDEST PUSH0 PUSH0 PUSH0 PUSH1 0x60 DUP5 DUP7 SUB SLT ISZERO PUSH2 0xC9B JUMPI PUSH2 0xC9A PUSH2 0x8F1 JUMP JUMPDEST JUMPDEST PUSH0 DUP5 ADD CALLDATALOAD PUSH8 0xFFFFFFFFFFFFFFFF DUP2 GT ISZERO PUSH2 0xCB8 JUMPI PUSH2 0xCB7 PUSH2 0x8F5 JUMP JUMPDEST JUMPDEST PUSH2 0xCC4 DUP7 DUP3 DUP8 ADD PUSH2 0xC2D JUMP JUMPDEST SWAP4 POP POP PUSH1 0x20 PUSH2 0xCD5 DUP7 DUP3 DUP8 ADD PUSH2 0x918 JUMP JUMPDEST SWAP3 POP POP PUSH1 0x40 PUSH2 0xCE6 DUP7 DUP3 DUP8 ADD PUSH2 0xC70 JUMP JUMPDEST SWAP2 POP POP SWAP3 POP SWAP3 POP SWAP3 JUMP JUMPDEST PUSH0 PUSH1 0x20 DUP3 ADD SWAP1 POP PUSH2 0xD03 PUSH0 DUP4 ADD DUP5 PUSH2 0xAA7 JUMP JUMPDEST SWAP3 SWAP2 POP POP JUMP JUMPDEST PUSH32 0x746869732066756E6374696F6E206973206D616E616765722D6F6E6C79000000 PUSH0 DUP3 ADD MSTORE POP JUMP JUMPDEST PUSH0 PUSH2 0xD3D PUSH1 0x1D DUP4 PUSH2 0xA41 JUMP JUMPDEST SWAP2 POP PUSH2 0xD48 DUP3 PUSH2 0xD09 JUMP JUMPDEST PUSH1 0x20 DUP3 ADD SWAP1 POP SWAP2 SWAP1 POP JUMP JUMPDEST PUSH0 PUSH1 0x20 DUP3 ADD SWAP1 POP DUP2 DUP2 SUB PUSH0 DUP4 ADD MSTORE PUSH2 0xD6A DUP2 PUSH2 0xD31 JUMP JUMPDEST SWAP1 POP SWAP2 SWAP1 POP JUMP JUMPDEST PUSH32 0x5265717565737420646F6573206E6F7420657869737400000000000000000000 PUSH0 DUP3 ADD MSTORE POP JUMP JUMPDEST PUSH0 PUSH2 0xDA5 PUSH1 0x16 DUP4 PUSH2 0xA41 JUMP JUMPDEST SWAP2 POP PUSH2 0xDB0 DUP3 PUSH2 0xD71 JUMP JUMPDEST PUSH1 0x20 DUP3 ADD SWAP1 POP SWAP2 SWAP1 POP JUMP JUMPDEST PUSH0 PUSH1 0x20 DUP3 ADD SWAP1 POP DUP2 DUP2 SUB PUSH0 DUP4 ADD MSTORE PUSH2 0xDD2 DUP2 PUSH2 0xD99 JUMP JUMPDEST SWAP1 POP SWAP2 SWAP1 POP JUMP JUMPDEST PUSH32 0x74686973207265717565737420697320616C726561647920636F6D706C657465 PUSH0 DUP3 ADD MSTORE POP JUMP JUMPDEST PUSH0 PUSH2 0xE0D PUSH1 0x20 DUP4 PUSH2 0xA41 JUMP JUMPDEST SWAP2 POP PUSH2 0xE18 DUP3 PUSH2 0xDD9 JUMP JUMPDEST PUSH1 0x20 DUP3 ADD SWAP1 POP SWAP2 SWAP1 POP JUMP JUMPDEST PUSH0 PUSH1 0x20 DUP3 ADD SWAP1 POP DUP2 DUP2 SUB PUSH0 DUP4 ADD MSTORE PUSH2 0xE3A DUP2 PUSH2 0xE01 JUMP JUMPDEST SWAP1 POP SWAP2 SWAP1 POP JUMP JUMPDEST PUSH32 0x4E487B7100000000000000000000000000000000000000000000000000000000 PUSH0 MSTORE PUSH1 0x12 PUSH1 0x4 MSTORE PUSH1 0x24 PUSH0 REVERT JUMPDEST PUSH32 0x4E487B7100000000000000000000000000000000000000000000000000000000 PUSH0 MSTORE PUSH1 0x11 PUSH1 0x4 MSTORE PUSH1 0x24 PUSH0 REVERT JUMPDEST PUSH0 PUSH2 0xEA5 DUP3 PUSH2 0x8F9 JUMP JUMPDEST SWAP2 POP PUSH2 0xEB0 DUP4 PUSH2 0x8F9 JUMP JUMPDEST SWAP3 POP DUP3 PUSH2 0xEC0 JUMPI PUSH2 0xEBF PUSH2 0xE41 JUMP JUMPDEST JUMPDEST DUP3 DUP3 DIV SWAP1 POP SWAP3 SWAP2 POP POP JUMP JUMPDEST PUSH32 0x74686973207265717565737420646F65736E2774206861766520617070726F76 PUSH0 DUP3 ADD MSTORE PUSH32 0x616572206D616A6F726974790000000000000000000000000000000000000000 PUSH1 0x20 DUP3 ADD MSTORE POP JUMP JUMPDEST PUSH0 PUSH2 0xF25 PUSH1 0x2C DUP4 PUSH2 0xA41 JUMP JUMPDEST SWAP2 POP PUSH2 0xF30 DUP3 PUSH2 0xECB JUMP JUMPDEST PUSH1 0x40 DUP3 ADD SWAP1 POP SWAP2 SWAP1 POP JUMP JUMPDEST PUSH0 PUSH1 0x20 DUP3 ADD SWAP1 POP DUP2 DUP2 SUB PUSH0 DUP4 ADD MSTORE PUSH2 0xF52 DUP2 PUSH2 0xF19 JUMP JUMPDEST SWAP1 POP SWAP2 SWAP1 POP JUMP JUMPDEST PUSH32 0x4E487B7100000000000000000000000000000000000000000000000000000000 PUSH0 MSTORE PUSH1 0x22 PUSH1 0x4 MSTORE PUSH1 0x24 PUSH0 REVERT JUMPDEST PUSH0 PUSH1 0x2 DUP3 DIV SWAP1 POP PUSH1 0x1 DUP3 AND DUP1 PUSH2 0xF9D JUMPI PUSH1 0x7F DUP3 AND SWAP2 POP JUMPDEST PUSH1 0x20 DUP3 LT DUP2 SUB PUSH2 0xFB0 JUMPI PUSH2 0xFAF PUSH2 0xF59 JUMP JUMPDEST JUMPDEST POP SWAP2 SWAP1 POP JUMP JUMPDEST PUSH0 DUP2 SWAP1 POP DUP2 PUSH0 MSTORE PUSH1 0x20 PUSH0 KECCAK256 SWAP1 POP SWAP2 SWAP1 POP JUMP JUMPDEST PUSH0 PUSH1 0x20 PUSH1 0x1F DUP4 ADD DIV SWAP1 POP SWAP2 SWAP1 POP JUMP JUMPDEST PUSH0 DUP3 DUP3 SHL SWAP1 POP SWAP3 SWAP2 POP POP JUMP JUMPDEST PUSH0 PUSH1 0x8 DUP4 MUL PUSH2 0x1012 PUSH32 0xFFFFFFFFFFFFFFFFFFFFFFFFFFFFFFFFFFFFFFFFFFFFFFFFFFFFFFFFFFFFFFFF DUP3 PUSH2 0xFD7 JUMP JUMPDEST PUSH2 0x101C DUP7 DUP4 PUSH2 0xFD7 JUMP JUMPDEST SWAP6 POP DUP1 NOT DUP5 AND SWAP4 POP DUP1 DUP7 AND DUP5 OR SWAP3 POP POP POP SWAP4 SWAP3 POP POP POP JUMP JUMPDEST PUSH0 DUP2 SWAP1 POP SWAP2 SWAP1 POP JUMP JUMPDEST PUSH0 PUSH2 0x1057 PUSH2 0x1052 PUSH2 0x104D DUP5 PUSH2 0x8F9 JUMP JUMPDEST PUSH2 0x1034 JUMP JUMPDEST PUSH2 0x8F9 JUMP JUMPDEST SWAP1 POP SWAP2 SWAP1 POP JUMP JUMPDEST PUSH0 DUP2 SWAP1 POP SWAP2 SWAP1 POP JUMP JUMPDEST PUSH2 0x1070 DUP4 PUSH2 0x103D JUMP JUMPDEST PUSH2 0x1084 PUSH2 0x107C DUP3 PUSH2 0x105E JUMP JUMPDEST DUP5 DUP5 SLOAD PUSH2 0xFE3 JUMP JUMPDEST DUP3 SSTORE POP POP POP POP JUMP JUMPDEST PUSH0 PUSH0 SWAP1 POP SWAP1 JUMP JUMPDEST PUSH2 0x109B PUSH2 0x108C JUMP JUMPDEST PUSH2 0x10A6 DUP2 DUP5 DUP5 PUSH2 0x1067 JUMP JUMPDEST POP POP POP JUMP JUMPDEST JUMPDEST DUP2 DUP2 LT ISZERO PUSH2 0x10C9 JUMPI PUSH2 0x10BE PUSH0 DUP3 PUSH2 0x1093 JUMP JUMPDEST PUSH1 0x1 DUP2 ADD SWAP1 POP PUSH2 0x10AC JUMP JUMPDEST POP POP JUMP JUMPDEST PUSH1 0x1F DUP3 GT ISZERO PUSH2 0x110E JUMPI PUSH2 0x10DF DUP2 PUSH2 0xFB6 JUMP JUMPDEST PUSH2 0x10E8 DUP5 PUSH2 0xFC8 JUMP JUMPDEST DUP2 ADD PUSH1 0x20 DUP6 LT ISZERO PUSH2 0x10F7 JUMPI DUP2 SWAP1 POP JUMPDEST PUSH2 0x110B PUSH2 0x1103 DUP6 PUSH2 0xFC8 JUMP JUMPDEST DUP4 ADD DUP3 PUSH2 0x10AB JUMP JUMPDEST POP POP JUMPDEST POP POP POP JUMP JUMPDEST PUSH0 DUP3 DUP3 SHR SWAP1 POP SWAP3 SWAP2 POP POP JUMP JUMPDEST PUSH0 PUSH2 0x112E PUSH0 NOT DUP5 PUSH1 0x8 MUL PUSH2 0x1113 JUMP JUMPDEST NOT DUP1 DUP4 AND SWAP2 POP POP SWAP3 SWAP2 POP POP JUMP JUMPDEST PUSH0 PUSH2 0x1146 DUP4 DUP4 PUSH2 0x111F JUMP JUMPDEST SWAP2 POP DUP3 PUSH1 0x2 MUL DUP3 OR SWAP1 POP SWAP3 SWAP2 POP POP JUMP JUMPDEST PUSH2 0x115F DUP3 PUSH2 0xA37 JUMP JUMPDEST PUSH8 0xFFFFFFFFFFFFFFFF DUP2 GT ISZERO PUSH2 0x1178 JUMPI PUSH2 0x1177 PUSH2 0xB36 JUMP JUMPDEST JUMPDEST PUSH2 0x1182 DUP3 SLOAD PUSH2 0xF86 JUMP JUMPDEST PUSH2 0x118D DUP3 DUP3 DUP6 PUSH2 0x10CD JUMP JUMPDEST PUSH0 PUSH1 0x20 SWAP1 POP PUSH1 0x1F DUP4 GT PUSH1 0x1 DUP2 EQ PUSH2 0x11BE JUMPI PUSH0 DUP5 ISZERO PUSH2 0x11AC JUMPI DUP3 DUP8 ADD MLOAD SWAP1 POP JUMPDEST PUSH2 0x11B6 DUP6 DUP3 PUSH2 0x113B JUMP JUMPDEST DUP7 SSTORE POP PUSH2 0x121D JUMP JUMPDEST PUSH1 0x1F NOT DUP5 AND PUSH2 0x11CC DUP7 PUSH2 0xFB6 JUMP JUMPDEST PUSH0 JUMPDEST DUP3 DUP2 LT ISZERO PUSH2 0x11F3 JUMPI DUP5 DUP10 ADD MLOAD DUP3 SSTORE PUSH1 0x1 DUP3 ADD SWAP2 POP PUSH1 0x20 DUP6 ADD SWAP5 POP PUSH1 0x20 DUP2 ADD SWAP1 POP PUSH2 0x11CE JUMP JUMPDEST DUP7 DUP4 LT ISZERO PUSH2 0x1210 JUMPI DUP5 DUP10 ADD MLOAD PUSH2 0x120C PUSH1 0x1F DUP10 AND DUP3 PUSH2 0x111F JUMP JUMPDEST DUP4 SSTORE POP JUMPDEST PUSH1 0x1 PUSH1 0x2 DUP9 MUL ADD DUP9 SSTORE POP POP POP JUMPDEST POP POP POP POP POP POP JUMP JUMPDEST PUSH0 PUSH2 0x122F DUP3 PUSH2 0x8F9 JUMP JUMPDEST SWAP2 POP PUSH32 0xFFFFFFFFFFFFFFFFFFFFFFFFFFFFFFFFFFFFFFFFFFFFFFFFFFFFFFFFFFFFFFFF DUP3 SUB PUSH2 0x1261 JUMPI PUSH2 0x1260 PUSH2 0xE6E JUMP JUMPDEST JUMPDEST PUSH1 0x1 DUP3 ADD SWAP1 POP SWAP2 SWAP1 POP JUMP JUMPDEST PUSH32 0x636F6E747269627574696F6E206D7573742062652067726561746572206F7220 PUSH0 DUP3 ADD MSTORE PUSH32 0x657175616C207468616E206D696E696D756D0000000000000000000000000000 PUSH1 0x20 DUP3 ADD MSTORE POP JUMP JUMPDEST PUSH0 PUSH2 0x12C6 PUSH1 0x32 DUP4 PUSH2 0xA41 JUMP JUMPDEST SWAP2 POP PUSH2 0x12D1 DUP3 PUSH2 0x126C JUMP JUMPDEST PUSH1 0x40 DUP3 ADD SWAP1 POP SWAP2 SWAP1 POP JUMP JUMPDEST PUSH0 PUSH1 0x20 DUP3 ADD SWAP1 POP DUP2 DUP2 SUB PUSH0 DUP4 ADD MSTORE PUSH2 0x12F3 DUP2 PUSH2 0x12BA JUMP JUMPDEST SWAP1 POP SWAP2 SWAP1 POP JUMP JUMPDEST PUSH32 0x746869732066756E6374696F6E20697320636F6E7472696275746F724F6E6C79 PUSH0 DUP3 ADD MSTORE PUSH32 0x2D6F6E6C79000000000000000000000000000000000000000000000000000000 PUSH1 0x20 DUP3 ADD MSTORE POP JUMP JUMPDEST PUSH0 PUSH2 0x1354 PUSH1 0x25 DUP4 PUSH2 0xA41 JUMP JUMPDEST SWAP2 POP PUSH2 0x135F DUP3 PUSH2 0x12FA JUMP JUMPDEST PUSH1 0x40 DUP3 ADD SWAP1 POP SWAP2 SWAP1 POP JUMP JUMPDEST PUSH0 PUSH1 0x20 DUP3 ADD SWAP1 POP DUP2 DUP2 SUB PUSH0 DUP4 ADD MSTORE PUSH2 0x1381 DUP2 PUSH2 0x1348 JUMP JUMPDEST SWAP1 POP SWAP2 SWAP1 POP JUMP JUMPDEST PUSH32 0x796F75206861766520616C726561647920617070726F76656420746865207265 PUSH0 DUP3 ADD MSTORE PUSH32 0x7175657374000000000000000000000000000000000000000000000000000000 PUSH1 0x20 DUP3 ADD MSTORE POP JUMP JUMPDEST PUSH0 PUSH2 0x13E2 PUSH1 0x25 DUP4 PUSH2 0xA41 JUMP JUMPDEST SWAP2 POP PUSH2 0x13ED DUP3 PUSH2 0x1388 JUMP JUMPDEST PUSH1 0x40 DUP3 ADD SWAP1 POP SWAP2 SWAP1 POP JUMP JUMPDEST PUSH0 PUSH1 0x20 DUP3 ADD SWAP1 POP DUP2 DUP2 SUB PUSH0 DUP4 ADD MSTORE PUSH2 0x140F DUP2 PUSH2 0x13D6 JUMP JUMPDEST SWAP1 POP SWAP2 SWAP1 POP JUMP INVALID LOG2 PUSH5 0x6970667358 0x22 SLT KECCAK256 SWAP4 DIV 0xC2 PUSH22 0x708BFA1F5C50C9487DC6BC3113D1419695BCA203AD17 PUSH2 0xF871 0xDE 0xBF PUSH25 0x64736F6C634300081C00330000000000000000000000000000 "
    },
    "gasEstimates": {
      "creation": {
        "codeDepositCost": "1039200",
        "executionCost": "infinite",
        "totalCost": "infinite"
      },
      "external": {
        "approveRequest(uint256)": "infinite",
        "approvers(address)": "2856",
        "contribute()": "50995",
        "createRequest(string,uint256,address)": "infinite",
        "finalizeRequest(uint256)": "infinite",
        "manager()": "2553",
        "minimumContribution()": "2447",
        "requests(uint256)": "infinite"
      }
    },
    "methodIdentifiers": {
      "approveRequest(uint256)": "d7d1bbdb",
      "approvers(address)": "0a144391",
      "contribute()": "d7bb99ba",
      "createRequest(string,uint256,address)": "8a9cfd55",
      "finalizeRequest(uint256)": "03441006",
      "manager()": "481c6a75",
      "minimumContribution()": "937e09b1",
      "requests(uint256)": "81d12c58"
    }
  },
  "storageLayout": {
    "storage": [
      {
        "astId": 18,
        "contract": "Campaign.sol:Campaign",
        "label": "requestCount",
        "offset": 0,
        "slot": "0",
        "type": "t_uint256"
      },
      {
        "astId": 20,
        "contract": "Campaign.sol:Campaign",
        "label": "approversCount",
        "offset": 0,
        "slot": "1",
        "type": "t_uint256"
      },
      {
        "astId": 25,
        "contract": "Campaign.sol:Campaign",
        "label": "requests",
        "offset": 0,
        "slot": "2",
        "type": "t_mapping(t_uint256,t_struct(Request)16_storage)"
      },
      {
        "astId": 27,
        "contract": "Campaign.sol:Campaign",
        "label": "manager",
        "offset": 0,
        "slot": "3",
        "type": "t_address"
      },
      {
        "astId": 29,
        "contract": "Campaign.sol:Campaign",
        "label": "minimumContribution",
        "offset": 0,
        "slot": "4",
        "type": "t_uint256"
      },
      {
        "astId": 33,
        "contract": "Campaign.sol:Campaign",
        "label": "approvers",
        "offset": 0,
        "slot": "5",
        "type": "t_mapping(t_address,t_bool)"
      }
    ],
    "types": {
      "t_address": {
        "encoding": "inplace",
        "label": "address",
        "numberOfBytes": "20"
      },
      "t_address_payable": {
        "encoding": "inplace",
        "label": "address payable",
        "numberOfBytes": "20"
      },
      "t_bool": {
        "encoding": "inplace",
        "label": "bool",
        "numberOfBytes": "1"
      },
      "t_mapping(t_address,t_bool)": {
        "encoding": "mapping",
        "key": "t_address",
        "label": "mapping(address => bool)",
        "numberOfBytes": "32",
        "value": "t_bool"
      },
      "t_mapping(t_uint256,t_struct(Request)16_storage)": {
        "encoding": "mapping",
        "key": "t_uint256",
        "label": "mapping(uint256 => struct Campaign.Request)",
        "numberOfBytes": "32",
        "value": "t_struct(Request)16_storage"
      },
      "t_string_storage": {
        "encoding": "bytes",
        "label": "string",
        "numberOfBytes": "32"
      },
      "t_struct(Request)16_storage": {
        "encoding": "inplace",
        "label": "struct Campaign.Request",
        "members": [
          {
            "astId": 3,
            "contract": "Campaign.sol:Campaign",
            "label": "description",
            "offset": 0,
            "slot": "0",
            "type": "t_string_storage"
          },
          {
            "astId": 5,
            "contract": "Campaign.sol:Campaign",
            "label": "value",
            "offset": 0,
            "slot": "1",
            "type": "t_uint256"
          },
          {
            "astId": 7,
            "contract": "Campaign.sol:Campaign",
            "label": "recipient",
            "offset": 0,
            "slot": "2",
            "type": "t_address_payable"
          },
          {
            "astId": 9,
            "contract": "Campaign.sol:Campaign",
            "label": "complete",
            "offset": 20,
            "slot": "2",
            "type": "t_bool"
          },
          {
            "astId": 11,
            "contract": "Campaign.sol:Campaign",
            "label": "countApproved",
            "offset": 0,
            "slot": "3",
            "type": "t_uint256"
          },
          {
            "astId": 15,
            "contract": "Campaign.sol:Campaign",
            "label": "approvals",
            "offset": 0,
            "slot": "4",
            "type": "t_mapping(t_address,t_bool)"
          }
        ],
        "numberOfBytes": "160"
      },
      "t_uint256": {
        "encoding": "inplace",
        "label": "uint256",
        "numberOfBytes": "32"
      }
    }
  },
  "transientStorageLayout": {
    "storage": [],
    "types": null
  },
  "userdoc": {
    "kind": "user",
    "methods": {},
    "version": 1
  }
}